{
  "_format": "hh3-artifact-1",
  "contractName": "PotholesRegistry",
  "sourceName": "contracts/PotholesRegistry.sol",
  "abi": [
    {
      "inputs": [
        {
          "internalType": "string",
          "name": "_cityName",
          "type": "string"
        },
        {
          "internalType": "address",
          "name": "_potholeToken",
          "type": "address"
        },
        {
          "internalType": "address",
          "name": "_trustedForwarder",
          "type": "address"
        },
        {
          "internalType": "address",
          "name": "_initialOwner",
          "type": "address"
        },
        {
          "internalType": "int256",
          "name": "_cityMinLat",
          "type": "int256"
        },
        {
          "internalType": "int256",
          "name": "_cityMaxLat",
          "type": "int256"
        },
        {
          "internalType": "int256",
          "name": "_cityMinLng",
          "type": "int256"
        },
        {
          "internalType": "int256",
          "name": "_cityMaxLng",
          "type": "int256"
        },
        {
          "internalType": "uint256",
          "name": "_gridPrecision",
          "type": "uint256"
        }
      ],
      "stateMutability": "nonpayable",
      "type": "constructor"
    },
    {
      "inputs": [
        {
          "internalType": "address",
          "name": "owner",
          "type": "address"
        }
      ],
      "name": "OwnableInvalidOwner",
      "type": "error"
    },
    {
      "inputs": [
        {
          "internalType": "address",
          "name": "account",
          "type": "address"
        }
      ],
      "name": "OwnableUnauthorizedAccount",
      "type": "error"
    },
    {
      "inputs": [],
      "name": "ReentrancyGuardReentrantCall",
      "type": "error"
    },
    {
      "anonymous": false,
      "inputs": [
        {
          "indexed": true,
          "internalType": "address",
          "name": "citizen",
          "type": "address"
        }
      ],
      "name": "CitizenRegistered",
      "type": "event"
    },
    {
      "anonymous": false,
      "inputs": [
        {
          "indexed": false,
          "internalType": "address[]",
          "name": "citizens",
          "type": "address[]"
        }
      ],
      "name": "CitizensBatchRegistered",
      "type": "event"
    },
    {
      "anonymous": false,
      "inputs": [
        {
          "indexed": true,
          "internalType": "uint256",
          "name": "originalReportId",
          "type": "uint256"
        },
        {
          "indexed": true,
          "internalType": "address",
          "name": "duplicateReporter",
          "type": "address"
        },
        {
          "indexed": false,
          "internalType": "uint256",
          "name": "newDuplicateCount",
          "type": "uint256"
        },
        {
          "indexed": false,
          "internalType": "int256",
          "name": "latitude",
          "type": "int256"
        },
        {
          "indexed": false,
          "internalType": "int256",
          "name": "longitude",
          "type": "int256"
        },
        {
          "indexed": false,
          "internalType": "string",
          "name": "ipfsHash",
          "type": "string"
        }
      ],
      "name": "DuplicateReported",
      "type": "event"
    },
    {
      "anonymous": false,
      "inputs": [
        {
          "indexed": true,
          "internalType": "address",
          "name": "authority",
          "type": "address"
        }
      ],
      "name": "MunicipalAuthorityAdded",
      "type": "event"
    },
    {
      "anonymous": false,
      "inputs": [
        {
          "indexed": true,
          "internalType": "address",
          "name": "authority",
          "type": "address"
        }
      ],
      "name": "MunicipalAuthorityRemoved",
      "type": "event"
    },
    {
      "anonymous": false,
      "inputs": [
        {
          "indexed": true,
          "internalType": "address",
          "name": "previousOwner",
          "type": "address"
        },
        {
          "indexed": true,
          "internalType": "address",
          "name": "newOwner",
          "type": "address"
        }
      ],
      "name": "OwnershipTransferred",
      "type": "event"
    },
    {
      "anonymous": false,
      "inputs": [
        {
          "indexed": true,
          "internalType": "uint256",
          "name": "reportId",
          "type": "uint256"
        },
        {
          "indexed": true,
          "internalType": "address",
          "name": "rejectedBy",
          "type": "address"
        },
        {
          "indexed": false,
          "internalType": "string",
          "name": "reason",
          "type": "string"
        }
      ],
      "name": "PotholeRejected",
      "type": "event"
    },
    {
      "anonymous": false,
      "inputs": [
        {
          "indexed": true,
          "internalType": "uint256",
          "name": "reportId",
          "type": "uint256"
        },
        {
          "indexed": true,
          "internalType": "address",
          "name": "reporter",
          "type": "address"
        },
        {
          "indexed": false,
          "internalType": "int256",
          "name": "latitude",
          "type": "int256"
        },
        {
          "indexed": false,
          "internalType": "int256",
          "name": "longitude",
          "type": "int256"
        },
        {
          "indexed": false,
          "internalType": "string",
          "name": "ipfsHash",
          "type": "string"
        }
      ],
      "name": "PotholeReported",
      "type": "event"
    },
    {
      "anonymous": false,
      "inputs": [
        {
          "indexed": true,
          "internalType": "uint256",
          "name": "reportId",
          "type": "uint256"
        },
        {
          "indexed": false,
          "internalType": "enum PotholesRegistry.PotholeStatus",
          "name": "oldStatus",
          "type": "uint8"
        },
        {
          "indexed": false,
          "internalType": "enum PotholesRegistry.PotholeStatus",
          "name": "newStatus",
          "type": "uint8"
        },
        {
          "indexed": true,
          "internalType": "address",
          "name": "updatedBy",
          "type": "address"
        }
      ],
      "name": "PotholeStatusUpdated",
      "type": "event"
    },
    {
      "anonymous": false,
      "inputs": [
        {
          "indexed": false,
          "internalType": "uint256",
          "name": "originalReportReward",
          "type": "uint256"
        },
        {
          "indexed": false,
          "internalType": "uint256",
          "name": "duplicateReporterReward",
          "type": "uint256"
        },
        {
          "indexed": false,
          "internalType": "uint256",
          "name": "duplicateOriginalBonus",
          "type": "uint256"
        }
      ],
      "name": "RewardSettingsUpdated",
      "type": "event"
    },
    {
      "inputs": [
        {
          "internalType": "address",
          "name": "citizen",
          "type": "address"
        }
      ],
      "name": "addCitizen",
      "outputs": [],
      "stateMutability": "nonpayable",
      "type": "function"
    },
    {
      "inputs": [
        {
          "internalType": "address[]",
          "name": "citizens",
          "type": "address[]"
        }
      ],
      "name": "addCitizensBatch",
      "outputs": [],
      "stateMutability": "nonpayable",
      "type": "function"
    },
    {
      "inputs": [
        {
          "internalType": "address",
          "name": "authority",
          "type": "address"
        }
      ],
      "name": "addMunicipalAuthority",
      "outputs": [],
      "stateMutability": "nonpayable",
      "type": "function"
    },
    {
      "inputs": [
        {
          "internalType": "address",
          "name": "",
          "type": "address"
        }
      ],
      "name": "authorizedMunicipals",
      "outputs": [
        {
          "internalType": "bool",
          "name": "",
          "type": "bool"
        }
      ],
      "stateMutability": "view",
      "type": "function"
    },
    {
      "inputs": [
        {
          "internalType": "uint256[]",
          "name": "reportIds",
          "type": "uint256[]"
        },
        {
          "internalType": "enum PotholesRegistry.PotholeStatus",
          "name": "newStatus",
          "type": "uint8"
        }
      ],
      "name": "batchUpdateStatus",
      "outputs": [],
      "stateMutability": "nonpayable",
      "type": "function"
    },
    {
      "inputs": [],
      "name": "citizenCount",
      "outputs": [
        {
          "internalType": "uint256",
          "name": "",
          "type": "uint256"
        }
      ],
      "stateMutability": "view",
      "type": "function"
    },
    {
      "inputs": [],
      "name": "cityMaxLat",
      "outputs": [
        {
          "internalType": "int256",
          "name": "",
          "type": "int256"
        }
      ],
      "stateMutability": "view",
      "type": "function"
    },
    {
      "inputs": [],
      "name": "cityMaxLng",
      "outputs": [
        {
          "internalType": "int256",
          "name": "",
          "type": "int256"
        }
      ],
      "stateMutability": "view",
      "type": "function"
    },
    {
      "inputs": [],
      "name": "cityMinLat",
      "outputs": [
        {
          "internalType": "int256",
          "name": "",
          "type": "int256"
        }
      ],
      "stateMutability": "view",
      "type": "function"
    },
    {
      "inputs": [],
      "name": "cityMinLng",
      "outputs": [
        {
          "internalType": "int256",
          "name": "",
          "type": "int256"
        }
      ],
      "stateMutability": "view",
      "type": "function"
    },
    {
      "inputs": [],
      "name": "cityName",
      "outputs": [
        {
          "internalType": "string",
          "name": "",
          "type": "string"
        }
      ],
      "stateMutability": "view",
      "type": "function"
    },
    {
      "inputs": [],
      "name": "duplicateReporterReward",
      "outputs": [
        {
          "internalType": "uint256",
          "name": "",
          "type": "uint256"
        }
      ],
      "stateMutability": "view",
      "type": "function"
    },
    {
      "inputs": [
        {
          "internalType": "uint256",
          "name": "reportId",
          "type": "uint256"
        }
      ],
      "name": "getPriorityScore",
      "outputs": [
        {
          "internalType": "uint256",
          "name": "",
          "type": "uint256"
        }
      ],
      "stateMutability": "view",
      "type": "function"
    },
    {
      "inputs": [
        {
          "internalType": "uint256",
          "name": "reportId",
          "type": "uint256"
        }
      ],
      "name": "getReport",
      "outputs": [
        {
          "components": [
            {
              "internalType": "uint256",
              "name": "id",
              "type": "uint256"
            },
            {
              "internalType": "int256",
              "name": "latitude",
              "type": "int256"
            },
            {
              "internalType": "int256",
              "name": "longitude",
              "type": "int256"
            },
            {
              "internalType": "string",
              "name": "ipfsHash",
              "type": "string"
            },
            {
              "internalType": "uint256",
              "name": "duplicateCount",
              "type": "uint256"
            },
            {
              "internalType": "uint256",
              "name": "reportedAt",
              "type": "uint256"
            },
            {
              "internalType": "address",
              "name": "reporter",
              "type": "address"
            },
            {
              "internalType": "enum PotholesRegistry.PotholeStatus",
              "name": "status",
              "type": "uint8"
            }
          ],
          "internalType": "struct PotholesRegistry.PotholeReport",
          "name": "",
          "type": "tuple"
        }
      ],
      "stateMutability": "view",
      "type": "function"
    },
    {
      "inputs": [
        {
          "internalType": "uint256[]",
          "name": "reportIds",
          "type": "uint256[]"
        }
      ],
      "name": "getReportsBatch",
      "outputs": [
        {
          "components": [
            {
              "internalType": "uint256",
              "name": "id",
              "type": "uint256"
            },
            {
              "internalType": "int256",
              "name": "latitude",
              "type": "int256"
            },
            {
              "internalType": "int256",
              "name": "longitude",
              "type": "int256"
            },
            {
              "internalType": "string",
              "name": "ipfsHash",
              "type": "string"
            },
            {
              "internalType": "uint256",
              "name": "duplicateCount",
              "type": "uint256"
            },
            {
              "internalType": "uint256",
              "name": "reportedAt",
              "type": "uint256"
            },
            {
              "internalType": "address",
              "name": "reporter",
              "type": "address"
            },
            {
              "internalType": "enum PotholesRegistry.PotholeStatus",
              "name": "status",
              "type": "uint8"
            }
          ],
          "internalType": "struct PotholesRegistry.PotholeReport[]",
          "name": "",
          "type": "tuple[]"
        }
      ],
      "stateMutability": "view",
      "type": "function"
    },
    {
      "inputs": [],
      "name": "getTotalReports",
      "outputs": [
        {
          "internalType": "uint256",
          "name": "",
          "type": "uint256"
        }
      ],
      "stateMutability": "view",
      "type": "function"
    },
    {
      "inputs": [],
      "name": "grid_precision",
      "outputs": [
        {
          "internalType": "uint256",
          "name": "",
          "type": "uint256"
        }
      ],
      "stateMutability": "view",
      "type": "function"
    },
    {
      "inputs": [
        {
          "internalType": "address",
          "name": "user",
          "type": "address"
        },
        {
          "internalType": "uint256",
          "name": "reportId",
          "type": "uint256"
        }
      ],
      "name": "hasUserReported",
      "outputs": [
        {
          "internalType": "bool",
          "name": "",
          "type": "bool"
        }
      ],
      "stateMutability": "view",
      "type": "function"
    },
    {
      "inputs": [
        {
          "internalType": "address",
          "name": "forwarder",
          "type": "address"
        }
      ],
      "name": "isTrustedForwarder",
      "outputs": [
        {
          "internalType": "bool",
          "name": "",
          "type": "bool"
        }
      ],
      "stateMutability": "view",
      "type": "function"
    },
    {
      "inputs": [
        {
          "internalType": "bytes32",
          "name": "",
          "type": "bytes32"
        }
      ],
      "name": "locationToReportId",
      "outputs": [
        {
          "internalType": "uint256",
          "name": "",
          "type": "uint256"
        }
      ],
      "stateMutability": "view",
      "type": "function"
    },
    {
      "inputs": [],
      "name": "nextReportId",
      "outputs": [
        {
          "internalType": "uint256",
          "name": "",
          "type": "uint256"
        }
      ],
      "stateMutability": "view",
      "type": "function"
    },
    {
      "inputs": [],
      "name": "originalReportFixedReward",
      "outputs": [
        {
          "internalType": "uint256",
          "name": "",
          "type": "uint256"
        }
      ],
      "stateMutability": "view",
      "type": "function"
    },
    {
      "inputs": [],
      "name": "originalReportReward",
      "outputs": [
        {
          "internalType": "uint256",
          "name": "",
          "type": "uint256"
        }
      ],
      "stateMutability": "view",
      "type": "function"
    },
    {
      "inputs": [],
      "name": "owner",
      "outputs": [
        {
          "internalType": "address",
          "name": "",
          "type": "address"
        }
      ],
      "stateMutability": "view",
      "type": "function"
    },
    {
      "inputs": [],
      "name": "pause",
      "outputs": [],
      "stateMutability": "nonpayable",
      "type": "function"
    },
    {
      "inputs": [],
      "name": "potholeToken",
      "outputs": [
        {
          "internalType": "contract IPotholesToken",
          "name": "",
          "type": "address"
        }
      ],
      "stateMutability": "view",
      "type": "function"
    },
    {
      "inputs": [
        {
          "internalType": "address",
          "name": "",
          "type": "address"
        }
      ],
      "name": "registeredCitizens",
      "outputs": [
        {
          "internalType": "bool",
          "name": "",
          "type": "bool"
        }
      ],
      "stateMutability": "view",
      "type": "function"
    },
    {
      "inputs": [
        {
          "internalType": "address",
          "name": "citizen",
          "type": "address"
        }
      ],
      "name": "removeCitizen",
      "outputs": [],
      "stateMutability": "nonpayable",
      "type": "function"
    },
    {
      "inputs": [
        {
          "internalType": "address",
          "name": "authority",
          "type": "address"
        }
      ],
      "name": "removeMunicipalAuthority",
      "outputs": [],
      "stateMutability": "nonpayable",
      "type": "function"
    },
    {
      "inputs": [],
      "name": "renounceOwnership",
      "outputs": [],
      "stateMutability": "nonpayable",
      "type": "function"
    },
    {
      "inputs": [
        {
          "internalType": "uint256",
          "name": "",
          "type": "uint256"
        }
      ],
      "name": "reports",
      "outputs": [
        {
          "internalType": "uint256",
          "name": "id",
          "type": "uint256"
        },
        {
          "internalType": "int256",
          "name": "latitude",
          "type": "int256"
        },
        {
          "internalType": "int256",
          "name": "longitude",
          "type": "int256"
        },
        {
          "internalType": "string",
          "name": "ipfsHash",
          "type": "string"
        },
        {
          "internalType": "uint256",
          "name": "duplicateCount",
          "type": "uint256"
        },
        {
          "internalType": "uint256",
          "name": "reportedAt",
          "type": "uint256"
        },
        {
          "internalType": "address",
          "name": "reporter",
          "type": "address"
        },
        {
          "internalType": "enum PotholesRegistry.PotholeStatus",
          "name": "status",
          "type": "uint8"
        }
      ],
      "stateMutability": "view",
      "type": "function"
    },
    {
      "inputs": [
        {
          "internalType": "int256",
          "name": "latitude",
          "type": "int256"
        },
        {
          "internalType": "int256",
          "name": "longitude",
          "type": "int256"
        },
        {
          "internalType": "string",
          "name": "ipfsHash",
          "type": "string"
        }
      ],
      "name": "submitReport",
      "outputs": [
        {
          "internalType": "uint256",
          "name": "",
          "type": "uint256"
        }
      ],
      "stateMutability": "nonpayable",
      "type": "function"
    },
    {
      "inputs": [],
      "name": "totalReports",
      "outputs": [
        {
          "internalType": "uint256",
          "name": "",
          "type": "uint256"
        }
      ],
      "stateMutability": "view",
      "type": "function"
    },
    {
      "inputs": [
        {
          "internalType": "address",
          "name": "newOwner",
          "type": "address"
        }
      ],
      "name": "transferOwnership",
      "outputs": [],
      "stateMutability": "nonpayable",
      "type": "function"
    },
    {
      "inputs": [],
      "name": "trustedForwarder",
      "outputs": [
        {
          "internalType": "address",
          "name": "",
          "type": "address"
        }
      ],
      "stateMutability": "view",
      "type": "function"
    },
    {
      "inputs": [
        {
          "internalType": "uint256",
          "name": "reportId",
          "type": "uint256"
        },
        {
          "internalType": "enum PotholesRegistry.PotholeStatus",
          "name": "newStatus",
          "type": "uint8"
        }
      ],
      "name": "updateReportStatus",
      "outputs": [],
      "stateMutability": "nonpayable",
      "type": "function"
    },
    {
      "inputs": [
        {
          "internalType": "uint256",
          "name": "_originalReportReward",
          "type": "uint256"
        },
        {
          "internalType": "uint256",
          "name": "_duplicateReporterReward",
          "type": "uint256"
        },
        {
          "internalType": "uint256",
          "name": "_originalReportFixedReward",
          "type": "uint256"
        }
      ],
      "name": "updateRewardSettings",
      "outputs": [],
      "stateMutability": "nonpayable",
      "type": "function"
    },
    {
      "inputs": [
        {
          "internalType": "address",
          "name": "",
          "type": "address"
        },
        {
          "internalType": "uint256",
          "name": "",
          "type": "uint256"
        }
      ],
      "name": "userReportedLocation",
      "outputs": [
        {
          "internalType": "bool",
          "name": "",
          "type": "bool"
        }
      ],
      "stateMutability": "view",
      "type": "function"
    }
  ],
  "bytecode": "0x6101606040526001600355678ac7230489e80000600455671bc16d674ec80000600555674563918244f40000600655348015610039575f5ffd5b5060405161482e38038061482e833981810160405281019061005b9190610464565b85878073ffffffffffffffffffffffffffffffffffffffff1660808173ffffffffffffffffffffffffffffffffffffffff1681525050505f73ffffffffffffffffffffffffffffffffffffffff168173ffffffffffffffffffffffffffffffffffffffff1603610102575f6040517f1e4fbdf70000000000000000000000000000000000000000000000000000000081526004016100f99190610553565b60405180910390fd5b6101118161019660201b60201c565b506001808190555088600290816101289190610773565b508773ffffffffffffffffffffffffffffffffffffffff1660a08173ffffffffffffffffffffffffffffffffffffffff16815250508460c081815250508360e08181525050826101008181525050816101208181525050806101408181525050505050505050505050610842565b5f5f5f9054906101000a900473ffffffffffffffffffffffffffffffffffffffff169050815f5f6101000a81548173ffffffffffffffffffffffffffffffffffffffff021916908373ffffffffffffffffffffffffffffffffffffffff1602179055508173ffffffffffffffffffffffffffffffffffffffff168173ffffffffffffffffffffffffffffffffffffffff167f8be0079c531659141344cd1fd0a4f28419497f9722a3daafe3b4186f6b6457e060405160405180910390a35050565b5f604051905090565b5f5ffd5b5f5ffd5b5f5ffd5b5f5ffd5b5f601f19601f8301169050919050565b7f4e487b71000000000000000000000000000000000000000000000000000000005f52604160045260245ffd5b6102b682610270565b810181811067ffffffffffffffff821117156102d5576102d4610280565b5b80604052505050565b5f6102e7610257565b90506102f382826102ad565b919050565b5f67ffffffffffffffff82111561031257610311610280565b5b61031b82610270565b9050602081019050919050565b8281835e5f83830152505050565b5f610348610343846102f8565b6102de565b9050828152602081018484840111156103645761036361026c565b5b61036f848285610328565b509392505050565b5f82601f83011261038b5761038a610268565b5b815161039b848260208601610336565b91505092915050565b5f73ffffffffffffffffffffffffffffffffffffffff82169050919050565b5f6103cd826103a4565b9050919050565b6103dd816103c3565b81146103e7575f5ffd5b50565b5f815190506103f8816103d4565b92915050565b5f819050919050565b610410816103fe565b811461041a575f5ffd5b50565b5f8151905061042b81610407565b92915050565b5f819050919050565b61044381610431565b811461044d575f5ffd5b50565b5f8151905061045e8161043a565b92915050565b5f5f5f5f5f5f5f5f5f6101208a8c03121561048257610481610260565b5b5f8a015167ffffffffffffffff81111561049f5761049e610264565b5b6104ab8c828d01610377565b99505060206104bc8c828d016103ea565b98505060406104cd8c828d016103ea565b97505060606104de8c828d016103ea565b96505060806104ef8c828d0161041d565b95505060a06105008c828d0161041d565b94505060c06105118c828d0161041d565b93505060e06105228c828d0161041d565b9250506101006105348c828d01610450565b9150509295985092959850929598565b61054d816103c3565b82525050565b5f6020820190506105665f830184610544565b92915050565b5f81519050919050565b7f4e487b71000000000000000000000000000000000000000000000000000000005f52602260045260245ffd5b5f60028204905060018216806105ba57607f821691505b6020821081036105cd576105cc610576565b5b50919050565b5f819050815f5260205f209050919050565b5f6020601f8301049050919050565b5f82821b905092915050565b5f6008830261062f7fffffffffffffffffffffffffffffffffffffffffffffffffffffffffffffffff826105f4565b61063986836105f4565b95508019841693508086168417925050509392505050565b5f819050919050565b5f61067461066f61066a84610431565b610651565b610431565b9050919050565b5f819050919050565b61068d8361065a565b6106a16106998261067b565b848454610600565b825550505050565b5f5f905090565b6106b86106a9565b6106c3818484610684565b505050565b5b818110156106e6576106db5f826106b0565b6001810190506106c9565b5050565b601f82111561072b576106fc816105d3565b610705846105e5565b81016020851015610714578190505b610728610720856105e5565b8301826106c8565b50505b505050565b5f82821c905092915050565b5f61074b5f1984600802610730565b1980831691505092915050565b5f610763838361073c565b9150826002028217905092915050565b61077c8261056c565b67ffffffffffffffff81111561079557610794610280565b5b61079f82546105a3565b6107aa8282856106ea565b5f60209050601f8311600181146107db575f84156107c9578287015190505b6107d38582610758565b86555061083a565b601f1984166107e9866105d3565b5f5b82811015610810578489015182556001820191506020850194506020810190506107eb565b8683101561082d5784890151610829601f89168261073c565b8355505b6001600288020188555050505b505050505050565b60805160a05160c05160e051610100516101205161014051613f636108cb5f395f8181610ee9015281816125e3015261261201525f818161133501526114ac01525f81816114810152611dd301525f81816107be015261141d01525f818161073d01526113f201525f8181611f8101528181612253015261234801525f610f440152613f635ff3fe608060405234801561000f575f5ffd5b5060043610610230575f3560e01c80637da0a8771161012e578063b9c2c260116100b6578063e004ccdc1161007a578063e004ccdc146106a9578063ea237bca146106c7578063f2fde38b146106e5578063f3ed597614610701578063fe4de2f51461071d57610230565b8063b9c2c260146105d8578063bc22f737146105f4578063c4a8b88514610624578063c942adf714610654578063d4e995001461068b57610230565b80639bf4dd0a116100fd5780639bf4dd0a14610520578063a382ebfe1461053c578063a9a30a341461056c578063b00eba4f1461058a578063b6939e63146105a857610230565b80637da0a877146104aa5780638456cb59146104c85780638da5cb5b146104d257806390259ee2146104f057610230565b806343e62436116101bc5780636476cd53116101805780636476cd53146104165780636bcddef1146104345780636e79bbf614610452578063715018a6146104705780637d88276d1461047a57610230565b806343e624361461034c5780634ddfc0e31461037c5780634e7f9b1914610398578063572b6c05146103c85780635b4c777d146103f857610230565b80632ceb9e91116102035780632ceb9e91146102aa5780632e97acf8146102c657806330fcf2d7146102e25780633920dfdf146103125780633fcf84ac1461032e57610230565b8063014c880b1461023457806313cf72481461025257806314c7f3501461026e5780632554d8881461028c575b5f5ffd5b61023c61073b565b604051610249919061277d565b60405180910390f35b61026c600480360381019061026791906127d1565b61075f565b005b6102766107bc565b604051610283919061277d565b60405180910390f35b6102946107e0565b6040516102a19190612830565b60405180910390f35b6102c460048036038101906102bf91906128a3565b6107e6565b005b6102e060048036038101906102db919061292f565b610889565b005b6102fc60048036038101906102f791906129ad565b6109f5565b6040516103099190612830565b60405180910390f35b61032c600480360381019061032791906128a3565b610a0a565b005b610336610b4e565b6040516103439190612830565b60405180910390f35b610366600480360381019061036191906128a3565b610b54565b60405161037391906129f2565b60405180910390f35b61039660048036038101906103919190612a83565b610b71565b005b6103b260048036038101906103ad9190612ae0565b610ccf565b6040516103bf9190612cc8565b60405180910390f35b6103e260048036038101906103dd91906128a3565b610e9d565b6040516103ef91906129f2565b60405180910390f35b610400610edb565b60405161040d9190612830565b60405180910390f35b61041e610ee1565b60405161042b9190612830565b60405180910390f35b61043c610ee7565b6040516104499190612830565b60405180910390f35b61045a610f0b565b6040516104679190612830565b60405180910390f35b610478610f11565b005b610494600480360381019061048f91906128a3565b610f24565b6040516104a191906129f2565b60405180910390f35b6104b2610f41565b6040516104bf9190612cf7565b60405180910390f35b6104d0610f68565b005b6104da610f72565b6040516104e79190612cf7565b60405180910390f35b61050a60048036038101906105059190612d10565b610f99565b60405161051791906129f2565b60405180910390f35b61053a600480360381019061053591906128a3565b610fc3565b005b61055660048036038101906105519190612d4e565b6110c2565b6040516105639190612f01565b60405180910390f35b610574611333565b604051610581919061277d565b60405180910390f35b610592611357565b60405161059f9190612830565b60405180910390f35b6105c260048036038101906105bd9190612fa0565b61135d565b6040516105cf9190612830565b60405180910390f35b6105f260048036038101906105ed91906128a3565b611ac8565b005b61060e60048036038101906106099190612ae0565b611b6a565b60405161061b9190612830565b60405180910390f35b61063e60048036038101906106399190612d10565b611bd8565b60405161064b91906129f2565b60405180910390f35b61066e60048036038101906106699190612ae0565b611c3a565b604051610682989796959493929190613068565b60405180910390f35b610693611d30565b6040516106a09190612830565b60405180910390f35b6106b1611d45565b6040516106be91906130eb565b60405180910390f35b6106cf611dd1565b6040516106dc919061277d565b60405180910390f35b6106ff60048036038101906106fa91906128a3565b611df5565b005b61071b6004803603810190610716919061310b565b611e79565b005b610725611f7f565b60405161073291906131a4565b60405180910390f35b7f000000000000000000000000000000000000000000000000000000000000000081565b610767611fa3565b8260048190555081600581905550806006819055507f81c63e7bb4b778ca83ee814a9371c4cfc70057222a35cb428fd7088d6edcb3e18383836040516107af939291906131bd565b60405180910390a1505050565b7f000000000000000000000000000000000000000000000000000000000000000081565b60055481565b6107ee611fa3565b6001600b5f8373ffffffffffffffffffffffffffffffffffffffff1673ffffffffffffffffffffffffffffffffffffffff1681526020019081526020015f205f6101000a81548160ff0219169083151502179055508073ffffffffffffffffffffffffffffffffffffffff167f5d3801481b7920325488e9878c76ee13e4e86aa62da34683c762c285cd18dac860405160405180910390a250565b610891611fa3565b5f5f90505b828290508110156109b75760095f8484848181106108b7576108b66131f2565b5b90506020020160208101906108cc91906128a3565b73ffffffffffffffffffffffffffffffffffffffff1673ffffffffffffffffffffffffffffffffffffffff1681526020019081526020015f205f9054906101000a900460ff166109aa57600160095f85858581811061092e5761092d6131f2565b5b905060200201602081019061094391906128a3565b73ffffffffffffffffffffffffffffffffffffffff1673ffffffffffffffffffffffffffffffffffffffff1681526020019081526020015f205f6101000a81548160ff021916908315150217905550600c5f8154809291906109a49061324c565b91905055505b8080600101915050610896565b507f47f767a915c2384f040e36bf8fa54416b8f9b7c95cf927d4729e67c424a1967882826040516109e9929190613340565b60405180910390a15050565b6008602052805f5260405f205f915090505481565b610a12611fa3565b60095f8273ffffffffffffffffffffffffffffffffffffffff1673ffffffffffffffffffffffffffffffffffffffff1681526020019081526020015f205f9054906101000a900460ff1615610a9c576040517f08c379a0000000000000000000000000000000000000000000000000000000008152600401610a93906133ac565b60405180910390fd5b600160095f8373ffffffffffffffffffffffffffffffffffffffff1673ffffffffffffffffffffffffffffffffffffffff1681526020019081526020015f205f6101000a81548160ff021916908315150217905550600c5f815480929190610b039061324c565b91905055508073ffffffffffffffffffffffffffffffffffffffff167fb5598409719558ebd54a454803d5d44a0b2ae7d77be5ea208f6a3b9698a2cb5860405160405180910390a250565b60065481565b600b602052805f5260405f205f915054906101000a900460ff1681565b600b5f610b7c61202a565b73ffffffffffffffffffffffffffffffffffffffff1673ffffffffffffffffffffffffffffffffffffffff1681526020019081526020015f205f9054906101000a900460ff16610c01576040517f08c379a0000000000000000000000000000000000000000000000000000000008152600401610bf89061343a565b60405180910390fd5b5f610c0a61202a565b90505f5f90505b84849050811015610cc8575f858583818110610c3057610c2f6131f2565b5b9050602002013590505f81118015610c49575060035481105b8015610c9a5750836003811115610c6357610c62612ba8565b5b60075f8381526020019081526020015f2060060160149054906101000a900460ff166003811115610c9757610c96612ba8565b5b14155b15610cba57610cb981858560405180602001604052805f815250612038565b5b508080600101915050610c11565b5050505050565b610cd76126ff565b815f81118015610ce8575060035481105b610d27576040517f08c379a0000000000000000000000000000000000000000000000000000000008152600401610d1e906134a2565b60405180910390fd5b60075f8481526020019081526020015f20604051806101000160405290815f82015481526020016001820154815260200160028201548152602001600382018054610d71906134ed565b80601f0160208091040260200160405190810160405280929190818152602001828054610d9d906134ed565b8015610de85780601f10610dbf57610100808354040283529160200191610de8565b820191905f5260205f20905b815481529060010190602001808311610dcb57829003601f168201915b505050505081526020016004820154815260200160058201548152602001600682015f9054906101000a900473ffffffffffffffffffffffffffffffffffffffff1673ffffffffffffffffffffffffffffffffffffffff1673ffffffffffffffffffffffffffffffffffffffff1681526020016006820160149054906101000a900460ff166003811115610e7f57610e7e612ba8565b5b6003811115610e9157610e90612ba8565b5b81525050915050919050565b5f610ea6610f41565b73ffffffffffffffffffffffffffffffffffffffff168273ffffffffffffffffffffffffffffffffffffffff16149050919050565b600c5481565b60045481565b7f000000000000000000000000000000000000000000000000000000000000000081565b60035481565b610f19611fa3565b610f225f6124d8565b565b6009602052805f5260405f205f915054906101000a900460ff1681565b5f7f0000000000000000000000000000000000000000000000000000000000000000905090565b610f70611fa3565b565b5f5f5f9054906101000a900473ffffffffffffffffffffffffffffffffffffffff16905090565b600a602052815f5260405f20602052805f5260405f205f915091509054906101000a900460ff1681565b610fcb611fa3565b60095f8273ffffffffffffffffffffffffffffffffffffffff1673ffffffffffffffffffffffffffffffffffffffff1681526020019081526020015f205f9054906101000a900460ff16611054576040517f08c379a000000000000000000000000000000000000000000000000000000000815260040161104b90613567565b60405180910390fd5b5f60095f8373ffffffffffffffffffffffffffffffffffffffff1673ffffffffffffffffffffffffffffffffffffffff1681526020019081526020015f205f6101000a81548160ff021916908315150217905550600c5f8154809291906110ba90613585565b919050555050565b60605f8383905067ffffffffffffffff8111156110e2576110e16135ac565b5b60405190808252806020026020018201604052801561111b57816020015b6111086126ff565b8152602001906001900390816111005790505b5090505f5f90505b84849050811015611328575f858583818110611142576111416131f2565b5b905060200201351180156111705750600354858583818110611167576111666131f2565b5b90506020020135105b1561131b5760075f86868481811061118b5761118a6131f2565b5b9050602002013581526020019081526020015f20604051806101000160405290815f820154815260200160018201548152602001600282015481526020016003820180546111d8906134ed565b80601f0160208091040260200160405190810160405280929190818152602001828054611204906134ed565b801561124f5780601f106112265761010080835404028352916020019161124f565b820191905f5260205f20905b81548152906001019060200180831161123257829003601f168201915b505050505081526020016004820154815260200160058201548152602001600682015f9054906101000a900473ffffffffffffffffffffffffffffffffffffffff1673ffffffffffffffffffffffffffffffffffffffff1673ffffffffffffffffffffffffffffffffffffffff1681526020016006820160149054906101000a900460ff1660038111156112e6576112e5612ba8565b5b60038111156112f8576112f7612ba8565b5b8152505082828151811061130f5761130e6131f2565b5b60200260200101819052505b8080600101915050611123565b508091505092915050565b7f000000000000000000000000000000000000000000000000000000000000000081565b600d5481565b5f60095f61136961202a565b73ffffffffffffffffffffffffffffffffffffffff1673ffffffffffffffffffffffffffffffffffffffff1681526020019081526020015f205f9054906101000a900460ff166113ee576040517f08c379a00000000000000000000000000000000000000000000000000000000081526004016113e590613623565b60405180910390fd5b84847f0000000000000000000000000000000000000000000000000000000000000000821215801561144057507f00000000000000000000000000000000000000000000000000000000000000008213155b61147f576040517f08c379a00000000000000000000000000000000000000000000000000000000081526004016114769061368b565b60405180910390fd5b7f000000000000000000000000000000000000000000000000000000000000000081121580156114cf57507f00000000000000000000000000000000000000000000000000000000000000008113155b61150e576040517f08c379a0000000000000000000000000000000000000000000000000000000008152600401611505906136f3565b60405180910390fd5b611516612599565b5f858590501161155b576040517f08c379a00000000000000000000000000000000000000000000000000000000081526004016115529061375b565b60405180910390fd5b5f61156688886125df565b90505f60085f8381526020019081526020015f205490505f60075f8381526020019081526020015f2060060160149054906101000a900460ff169050600160038111156115b6576115b5612ba8565b5b8160038111156115c9576115c8612ba8565b5b03611609576040517f08c379a0000000000000000000000000000000000000000000000000000000008152600401611600906137e9565b60405180910390fd5b5f821415801561166e575060038081111561162757611626612ba8565b5b81600381111561163a57611639612ba8565b5b1415801561166d57506002600381111561165757611656612ba8565b5b81600381111561166a57611669612ba8565b5b14155b5b1561182457600a5f61167e61202a565b73ffffffffffffffffffffffffffffffffffffffff1673ffffffffffffffffffffffffffffffffffffffff1681526020019081526020015f205f8381526020019081526020015f205f9054906101000a900460ff1615611713576040517f08c379a000000000000000000000000000000000000000000000000000000000815260040161170a90613877565b60405180910390fd5b6001600a5f61172061202a565b73ffffffffffffffffffffffffffffffffffffffff1673ffffffffffffffffffffffffffffffffffffffff1681526020019081526020015f205f8481526020019081526020015f205f6101000a81548160ff02191690831515021790555060075f8381526020019081526020015f206004015f8154809291906117a29061324c565b91905055506117af61202a565b73ffffffffffffffffffffffffffffffffffffffff16827f3879dd57505e8a84ac504fd34e6d53fa1d12dde58d22ffb23cae1ab00a99658b60075f8681526020019081526020015f20600401548d8d8d8d6040516118119594939291906138cf565b60405180910390a3819550505050611ab6565b5f60035f8154809291906118379061324c565b9190505590506040518061010001604052808281526020018c81526020018b81526020018a8a8080601f0160208091040260200160405190810160405280939291908181526020018383808284375f81840152601f19601f820116905080830192505050505050508152602001600181526020014281526020016118b961202a565b73ffffffffffffffffffffffffffffffffffffffff1681526020015f60038111156118e7576118e6612ba8565b5b81525060075f8381526020019081526020015f205f820151815f01556020820151816001015560408201518160020155606082015181600301908161192c9190613ab2565b506080820151816004015560a0820151816005015560c0820151816006015f6101000a81548173ffffffffffffffffffffffffffffffffffffffff021916908373ffffffffffffffffffffffffffffffffffffffff16021790555060e08201518160060160146101000a81548160ff021916908360038111156119b2576119b1612ba8565b5b02179055509050508060085f8681526020019081526020015f20819055506001600a5f6119dd61202a565b73ffffffffffffffffffffffffffffffffffffffff1673ffffffffffffffffffffffffffffffffffffffff1681526020019081526020015f205f8381526020019081526020015f205f6101000a81548160ff021916908315150217905550600d5f815480929190611a4d9061324c565b9190505550611a5a61202a565b73ffffffffffffffffffffffffffffffffffffffff16817fedfd59fc8d20e38b911881251ae023955c73f63676d6c42991fb147e860205718d8d8d8d604051611aa69493929190613b81565b60405180910390a3809650505050505b611abe612671565b5050949350505050565b611ad0611fa3565b5f600b5f8373ffffffffffffffffffffffffffffffffffffffff1673ffffffffffffffffffffffffffffffffffffffff1681526020019081526020015f205f6101000a81548160ff0219169083151502179055508073ffffffffffffffffffffffffffffffffffffffff167f08352b96180b75a898e55b04cd75501819256dec10cd7992d5d9d5b5af6a8c1d60405160405180910390a250565b5f815f81118015611b7c575060035481105b611bbb576040517f08c379a0000000000000000000000000000000000000000000000000000000008152600401611bb2906134a2565b60405180910390fd5b60075f8481526020019081526020015f2060040154915050919050565b5f600a5f8473ffffffffffffffffffffffffffffffffffffffff1673ffffffffffffffffffffffffffffffffffffffff1681526020019081526020015f205f8381526020019081526020015f205f9054906101000a900460ff16905092915050565b6007602052805f5260405f205f91509050805f015490806001015490806002015490806003018054611c6b906134ed565b80601f0160208091040260200160405190810160405280929190818152602001828054611c97906134ed565b8015611ce25780601f10611cb957610100808354040283529160200191611ce2565b820191905f5260205f20905b815481529060010190602001808311611cc557829003601f168201915b505050505090806004015490806005015490806006015f9054906101000a900473ffffffffffffffffffffffffffffffffffffffff16908060060160149054906101000a900460ff16905088565b5f6001600354611d409190613bbf565b905090565b60028054611d52906134ed565b80601f0160208091040260200160405190810160405280929190818152602001828054611d7e906134ed565b8015611dc95780601f10611da057610100808354040283529160200191611dc9565b820191905f5260205f20905b815481529060010190602001808311611dac57829003601f168201915b505050505081565b7f000000000000000000000000000000000000000000000000000000000000000081565b611dfd611fa3565b5f73ffffffffffffffffffffffffffffffffffffffff168173ffffffffffffffffffffffffffffffffffffffff1603611e6d575f6040517f1e4fbdf7000000000000000000000000000000000000000000000000000000008152600401611e649190612cf7565b60405180910390fd5b611e76816124d8565b50565b600b5f611e8461202a565b73ffffffffffffffffffffffffffffffffffffffff1673ffffffffffffffffffffffffffffffffffffffff1681526020019081526020015f205f9054906101000a900460ff16611f09576040517f08c379a0000000000000000000000000000000000000000000000000000000008152600401611f009061343a565b60405180910390fd5b815f81118015611f1a575060035481105b611f59576040517f08c379a0000000000000000000000000000000000000000000000000000000008152600401611f50906134a2565b60405180910390fd5b611f7a8383611f6661202a565b60405180602001604052805f815250612038565b505050565b7f000000000000000000000000000000000000000000000000000000000000000081565b611fab61202a565b73ffffffffffffffffffffffffffffffffffffffff16611fc9610f72565b73ffffffffffffffffffffffffffffffffffffffff161461202857611fec61202a565b6040517f118cdaa700000000000000000000000000000000000000000000000000000000815260040161201f9190612cf7565b60405180910390fd5b565b5f61203361267a565b905090565b5f84118015612048575060035484105b612087576040517f08c379a000000000000000000000000000000000000000000000000000000000815260040161207e906134a2565b60405180910390fd5b5f60075f8681526020019081526020015f2060060160149054906101000a900460ff1690508360038111156120bf576120be612ba8565b5b8160038111156120d2576120d1612ba8565b5b03612112576040517f08c379a000000000000000000000000000000000000000000000000000000000815260040161210990613c3c565b60405180910390fd5b60038081111561212557612124612ba8565b5b81600381111561213857612137612ba8565b5b03612178576040517f08c379a000000000000000000000000000000000000000000000000000000000815260040161216f90613ca4565b60405180910390fd5b6002600381111561218c5761218b612ba8565b5b81600381111561219f5761219e612ba8565b5b036121df576040517f08c379a00000000000000000000000000000000000000000000000000000000081526004016121d690613d0c565b60405180910390fd5b8360075f8781526020019081526020015f2060060160146101000a81548160ff0219169083600381111561221657612215612ba8565b5b02179055506001600381111561222f5761222e612ba8565b5b84600381111561224257612241612ba8565b5b03612310575f600454111561230f577f000000000000000000000000000000000000000000000000000000000000000073ffffffffffffffffffffffffffffffffffffffff166340c10f1960075f8881526020019081526020015f206006015f9054906101000a900473ffffffffffffffffffffffffffffffffffffffff166004546040518363ffffffff1660e01b81526004016122e1929190613d2a565b5f604051808303815f87803b1580156122f8575f5ffd5b505af115801561230a573d5f5f3e3d5ffd5b505050505b5b6002600381111561232457612323612ba8565b5b84600381111561233757612336612ba8565b5b03612405575f6006541115612404577f000000000000000000000000000000000000000000000000000000000000000073ffffffffffffffffffffffffffffffffffffffff166340c10f1960075f8881526020019081526020015f206006015f9054906101000a900473ffffffffffffffffffffffffffffffffffffffff166006546040518363ffffffff1660e01b81526004016123d6929190613d2a565b5f604051808303815f87803b1580156123ed575f5ffd5b505af11580156123ff573d5f5f3e3d5ffd5b505050505b5b60038081111561241857612417612ba8565b5b84600381111561242b5761242a612ba8565b5b03612480578273ffffffffffffffffffffffffffffffffffffffff16857f680ece1b23982e94b6ad4eaac3516c85a1a180e5d8534ece0958acf5cc5550cd8460405161247791906130eb565b60405180910390a35b8273ffffffffffffffffffffffffffffffffffffffff16857fb7b408e0733e6eaa913dccb39577cd0fceb3653d0f699a2813216f38bbd1dc2883876040516124c9929190613d51565b60405180910390a35050505050565b5f5f5f9054906101000a900473ffffffffffffffffffffffffffffffffffffffff169050815f5f6101000a81548173ffffffffffffffffffffffffffffffffffffffff021916908373ffffffffffffffffffffffffffffffffffffffff1602179055508173ffffffffffffffffffffffffffffffffffffffff168173ffffffffffffffffffffffffffffffffffffffff167f8be0079c531659141344cd1fd0a4f28419497f9722a3daafe3b4186f6b6457e060405160405180910390a35050565b6002600154036125d5576040517f3ee5aeb500000000000000000000000000000000000000000000000000000000815260040160405180910390fd5b6002600181905550565b5f5f7f00000000000000000000000000000000000000000000000000000000000000008461260d9190613da5565b90505f7f00000000000000000000000000000000000000000000000000000000000000008461263c9190613da5565b90508181604051602001612651929190613e2d565b604051602081830303815290604052805190602001209250505092915050565b60018081905550565b5f5f5f36905090505f61268b6126e2565b90508082101580156126a257506126a133610e9d565b5b156126d2575f368284039080926126bb93929190613e60565b906126c69190613ecf565b60601c925050506126df565b6126da6126f0565b925050505b90565b5f6126eb6126f7565b905090565b5f33905090565b5f6014905090565b6040518061010001604052805f81526020015f81526020015f8152602001606081526020015f81526020015f81526020015f73ffffffffffffffffffffffffffffffffffffffff1681526020015f600381111561275f5761275e612ba8565b5b81525090565b5f819050919050565b61277781612765565b82525050565b5f6020820190506127905f83018461276e565b92915050565b5f5ffd5b5f5ffd5b5f819050919050565b6127b08161279e565b81146127ba575f5ffd5b50565b5f813590506127cb816127a7565b92915050565b5f5f5f606084860312156127e8576127e7612796565b5b5f6127f5868287016127bd565b9350506020612806868287016127bd565b9250506040612817868287016127bd565b9150509250925092565b61282a8161279e565b82525050565b5f6020820190506128435f830184612821565b92915050565b5f73ffffffffffffffffffffffffffffffffffffffff82169050919050565b5f61287282612849565b9050919050565b61288281612868565b811461288c575f5ffd5b50565b5f8135905061289d81612879565b92915050565b5f602082840312156128b8576128b7612796565b5b5f6128c58482850161288f565b91505092915050565b5f5ffd5b5f5ffd5b5f5ffd5b5f5f83601f8401126128ef576128ee6128ce565b5b8235905067ffffffffffffffff81111561290c5761290b6128d2565b5b602083019150836020820283011115612928576129276128d6565b5b9250929050565b5f5f6020838503121561294557612944612796565b5b5f83013567ffffffffffffffff8111156129625761296161279a565b5b61296e858286016128da565b92509250509250929050565b5f819050919050565b61298c8161297a565b8114612996575f5ffd5b50565b5f813590506129a781612983565b92915050565b5f602082840312156129c2576129c1612796565b5b5f6129cf84828501612999565b91505092915050565b5f8115159050919050565b6129ec816129d8565b82525050565b5f602082019050612a055f8301846129e3565b92915050565b5f5f83601f840112612a2057612a1f6128ce565b5b8235905067ffffffffffffffff811115612a3d57612a3c6128d2565b5b602083019150836020820283011115612a5957612a586128d6565b5b9250929050565b60048110612a6c575f5ffd5b50565b5f81359050612a7d81612a60565b92915050565b5f5f5f60408486031215612a9a57612a99612796565b5b5f84013567ffffffffffffffff811115612ab757612ab661279a565b5b612ac386828701612a0b565b93509350506020612ad686828701612a6f565b9150509250925092565b5f60208284031215612af557612af4612796565b5b5f612b02848285016127bd565b91505092915050565b612b148161279e565b82525050565b612b2381612765565b82525050565b5f81519050919050565b5f82825260208201905092915050565b8281835e5f83830152505050565b5f601f19601f8301169050919050565b5f612b6b82612b29565b612b758185612b33565b9350612b85818560208601612b43565b612b8e81612b51565b840191505092915050565b612ba281612868565b82525050565b7f4e487b71000000000000000000000000000000000000000000000000000000005f52602160045260245ffd5b60048110612be657612be5612ba8565b5b50565b5f819050612bf682612bd5565b919050565b5f612c0582612be9565b9050919050565b612c1581612bfb565b82525050565b5f61010083015f830151612c315f860182612b0b565b506020830151612c446020860182612b1a565b506040830151612c576040860182612b1a565b5060608301518482036060860152612c6f8282612b61565b9150506080830151612c846080860182612b0b565b5060a0830151612c9760a0860182612b0b565b5060c0830151612caa60c0860182612b99565b5060e0830151612cbd60e0860182612c0c565b508091505092915050565b5f6020820190508181035f830152612ce08184612c1b565b905092915050565b612cf181612868565b82525050565b5f602082019050612d0a5f830184612ce8565b92915050565b5f5f60408385031215612d2657612d25612796565b5b5f612d338582860161288f565b9250506020612d44858286016127bd565b9150509250929050565b5f5f60208385031215612d6457612d63612796565b5b5f83013567ffffffffffffffff811115612d8157612d8061279a565b5b612d8d85828601612a0b565b92509250509250929050565b5f81519050919050565b5f82825260208201905092915050565b5f819050602082019050919050565b5f61010083015f830151612dd85f860182612b0b565b506020830151612deb6020860182612b1a565b506040830151612dfe6040860182612b1a565b5060608301518482036060860152612e168282612b61565b9150506080830151612e2b6080860182612b0b565b5060a0830151612e3e60a0860182612b0b565b5060c0830151612e5160c0860182612b99565b5060e0830151612e6460e0860182612c0c565b508091505092915050565b5f612e7a8383612dc2565b905092915050565b5f602082019050919050565b5f612e9882612d99565b612ea28185612da3565b935083602082028501612eb485612db3565b805f5b85811015612eef5784840389528151612ed08582612e6f565b9450612edb83612e82565b925060208a01995050600181019050612eb7565b50829750879550505050505092915050565b5f6020820190508181035f830152612f198184612e8e565b905092915050565b612f2a81612765565b8114612f34575f5ffd5b50565b5f81359050612f4581612f21565b92915050565b5f5f83601f840112612f6057612f5f6128ce565b5b8235905067ffffffffffffffff811115612f7d57612f7c6128d2565b5b602083019150836001820283011115612f9957612f986128d6565b5b9250929050565b5f5f5f5f60608587031215612fb857612fb7612796565b5b5f612fc587828801612f37565b9450506020612fd687828801612f37565b935050604085013567ffffffffffffffff811115612ff757612ff661279a565b5b61300387828801612f4b565b925092505092959194509250565b5f82825260208201905092915050565b5f61302b82612b29565b6130358185613011565b9350613045818560208601612b43565b61304e81612b51565b840191505092915050565b61306281612bfb565b82525050565b5f6101008201905061307c5f83018b612821565b613089602083018a61276e565b613096604083018961276e565b81810360608301526130a88188613021565b90506130b76080830187612821565b6130c460a0830186612821565b6130d160c0830185612ce8565b6130de60e0830184613059565b9998505050505050505050565b5f6020820190508181035f8301526131038184613021565b905092915050565b5f5f6040838503121561312157613120612796565b5b5f61312e858286016127bd565b925050602061313f85828601612a6f565b9150509250929050565b5f819050919050565b5f61316c61316761316284612849565b613149565b612849565b9050919050565b5f61317d82613152565b9050919050565b5f61318e82613173565b9050919050565b61319e81613184565b82525050565b5f6020820190506131b75f830184613195565b92915050565b5f6060820190506131d05f830186612821565b6131dd6020830185612821565b6131ea6040830184612821565b949350505050565b7f4e487b71000000000000000000000000000000000000000000000000000000005f52603260045260245ffd5b7f4e487b71000000000000000000000000000000000000000000000000000000005f52601160045260245ffd5b5f6132568261279e565b91507fffffffffffffffffffffffffffffffffffffffffffffffffffffffffffffffff82036132885761328761321f565b5b600182019050919050565b5f82825260208201905092915050565b5f819050919050565b5f6132b78383612b99565b60208301905092915050565b5f6132d1602084018461288f565b905092915050565b5f602082019050919050565b5f6132f08385613293565b93506132fb826132a3565b805f5b858110156133335761331082846132c3565b61331a88826132ac565b9750613325836132d9565b9250506001810190506132fe565b5085925050509392505050565b5f6020820190508181035f8301526133598184866132e5565b90509392505050565b7f436974697a656e20616c726561647920726567697374657265640000000000005f82015250565b5f613396601a83613011565b91506133a182613362565b602082019050919050565b5f6020820190508181035f8301526133c38161338a565b9050919050565b7f4e6f7420617574686f72697a6564206d756e69636970616c20617574686f72695f8201527f7479000000000000000000000000000000000000000000000000000000000000602082015250565b5f613424602283613011565b915061342f826133ca565b604082019050919050565b5f6020820190508181035f83015261345181613418565b9050919050565b7f496e76616c6964207265706f72742049440000000000000000000000000000005f82015250565b5f61348c601183613011565b915061349782613458565b602082019050919050565b5f6020820190508181035f8301526134b981613480565b9050919050565b7f4e487b71000000000000000000000000000000000000000000000000000000005f52602260045260245ffd5b5f600282049050600182168061350457607f821691505b602082108103613517576135166134c0565b5b50919050565b7f436974697a656e206e6f742072656769737465726564000000000000000000005f82015250565b5f613551601683613011565b915061355c8261351d565b602082019050919050565b5f6020820190508181035f83015261357e81613545565b9050919050565b5f61358f8261279e565b91505f82036135a1576135a061321f565b5b600182039050919050565b7f4e487b71000000000000000000000000000000000000000000000000000000005f52604160045260245ffd5b7f4e6f74207265676973746572656420636974697a656e000000000000000000005f82015250565b5f61360d601683613011565b9150613618826135d9565b602082019050919050565b5f6020820190508181035f83015261363a81613601565b9050919050565b7f4c61746974756465206f757473696465206369747920626f756e6473000000005f82015250565b5f613675601c83613011565b915061368082613641565b602082019050919050565b5f6020820190508181035f8301526136a281613669565b9050919050565b7f4c6f6e676974756465206f757473696465206369747920626f756e64730000005f82015250565b5f6136dd601d83613011565b91506136e8826136a9565b602082019050919050565b5f6020820190508181035f83015261370a816136d1565b9050919050565b7f49504653206861736820726571756972656400000000000000000000000000005f82015250565b5f613745601283613011565b915061375082613711565b602082019050919050565b5f6020820190508181035f83015261377281613739565b9050919050565b7f43616e6e6f74207265706f7274206c6f636174696f6e20696e2070726f6772655f8201527f7373000000000000000000000000000000000000000000000000000000000000602082015250565b5f6137d3602283613011565b91506137de82613779565b604082019050919050565b5f6020820190508181035f830152613800816137c7565b9050919050565b7f596f7520616c7265616479207265706f72746564207468697320706f74686f6c5f8201527f6500000000000000000000000000000000000000000000000000000000000000602082015250565b5f613861602183613011565b915061386c82613807565b604082019050919050565b5f6020820190508181035f83015261388e81613855565b9050919050565b828183375f83830152505050565b5f6138ae8385613011565b93506138bb838584613895565b6138c483612b51565b840190509392505050565b5f6080820190506138e25f830188612821565b6138ef602083018761276e565b6138fc604083018661276e565b818103606083015261390f8184866138a3565b90509695505050505050565b5f819050815f5260205f209050919050565b5f6020601f8301049050919050565b5f82821b905092915050565b5f600883026139777fffffffffffffffffffffffffffffffffffffffffffffffffffffffffffffffff8261393c565b613981868361393c565b95508019841693508086168417925050509392505050565b5f6139b36139ae6139a98461279e565b613149565b61279e565b9050919050565b5f819050919050565b6139cc83613999565b6139e06139d8826139ba565b848454613948565b825550505050565b5f5f905090565b6139f76139e8565b613a028184846139c3565b505050565b5b81811015613a2557613a1a5f826139ef565b600181019050613a08565b5050565b601f821115613a6a57613a3b8161391b565b613a448461392d565b81016020851015613a53578190505b613a67613a5f8561392d565b830182613a07565b50505b505050565b5f82821c905092915050565b5f613a8a5f1984600802613a6f565b1980831691505092915050565b5f613aa28383613a7b565b9150826002028217905092915050565b613abb82612b29565b67ffffffffffffffff811115613ad457613ad36135ac565b5b613ade82546134ed565b613ae9828285613a29565b5f60209050601f831160018114613b1a575f8415613b08578287015190505b613b128582613a97565b865550613b79565b601f198416613b288661391b565b5f5b82811015613b4f57848901518255600182019150602085019450602081019050613b2a565b86831015613b6c5784890151613b68601f891682613a7b565b8355505b6001600288020188555050505b505050505050565b5f606082019050613b945f83018761276e565b613ba1602083018661276e565b8181036040830152613bb48184866138a3565b905095945050505050565b5f613bc98261279e565b9150613bd48361279e565b9250828203905081811115613bec57613beb61321f565b5b92915050565b7f53746174757320756e6368616e676564000000000000000000000000000000005f82015250565b5f613c26601083613011565b9150613c3182613bf2565b602082019050919050565b5f6020820190508181035f830152613c5381613c1a565b9050919050565b7f43616e6e6f74207570646174652072656a656374656420706f74686f6c6500005f82015250565b5f613c8e601e83613011565b9150613c9982613c5a565b602082019050919050565b5f6020820190508181035f830152613cbb81613c82565b9050919050565b7f43616e6e6f742075706461746520636f6d706c6574656420706f74686f6c65005f82015250565b5f613cf6601f83613011565b9150613d0182613cc2565b602082019050919050565b5f6020820190508181035f830152613d2381613cea565b9050919050565b5f604082019050613d3d5f830185612ce8565b613d4a6020830184612821565b9392505050565b5f604082019050613d645f830185613059565b613d716020830184613059565b9392505050565b7f4e487b71000000000000000000000000000000000000000000000000000000005f52601260045260245ffd5b5f613daf82612765565b9150613dba83612765565b925082613dca57613dc9613d78565b5b60015f0383147f800000000000000000000000000000000000000000000000000000000000000083141615613e0257613e0161321f565b5b828205905092915050565b5f819050919050565b613e27613e2282612765565b613e0d565b82525050565b5f613e388285613e16565b602082019150613e488284613e16565b6020820191508190509392505050565b5f5ffd5b5f5ffd5b5f5f85851115613e7357613e72613e58565b5b83861115613e8457613e83613e5c565b5b6001850283019150848603905094509492505050565b5f82905092915050565b5f7fffffffffffffffffffffffffffffffffffffffff00000000000000000000000082169050919050565b5f613eda8383613e9a565b82613ee58135613ea4565b92506014821015613f2557613f207fffffffffffffffffffffffffffffffffffffffff0000000000000000000000008360140360080261393c565b831692505b50509291505056fea26469706673582212206029c9431dee065592b824d6403bc33be588a7dcc6b8c73aa1b9bb0a0a5c3af864736f6c634300081c0033",
  "linkReferences": {},
  "deployedLinkReferences": {},
  "immutableReferences": {
    "319": [
      {
        "length": 32,
        "start": 3908
      }
    ],
    "8503": [
      {
        "length": 32,
        "start": 8065
      },
      {
        "length": 32,
        "start": 8787
      },
      {
        "length": 32,
        "start": 9032
      }
    ],
    "8510": [
      {
        "length": 32,
        "start": 1853
      },
      {
        "length": 32,
        "start": 5106
      }
    ],
    "8512": [
      {
        "length": 32,
        "start": 1982
      },
      {
        "length": 32,
        "start": 5149
      }
    ],
    "8514": [
      {
        "length": 32,
        "start": 5249
      },
      {
        "length": 32,
        "start": 7635
      }
    ],
    "8516": [
      {
        "length": 32,
        "start": 4917
      },
      {
        "length": 32,
        "start": 5292
      }
    ],
    "8518": [
      {
        "length": 32,
        "start": 3817
      },
      {
        "length": 32,
        "start": 9699
      },
      {
        "length": 32,
        "start": 9746
      }
    ]
  },
  "inputSourceName": "project/contracts/PotholesRegistry.sol",
  "buildInfoId": "solc-0_8_28-c40d9a0424f353316b2a8cf4a1eca36617abbda4"
}