{
  "_format": "hh3-artifact-1",
  "contractName": "PotholesRegistry",
  "sourceName": "contracts/PotholesRegistry.sol",
  "abi": [
    {
      "inputs": [
        {
          "internalType": "string",
          "name": "_cityName",
          "type": "string"
        },
        {
          "internalType": "address",
          "name": "_potholeToken",
          "type": "address"
        },
        {
          "internalType": "address",
          "name": "_trustedForwarder",
          "type": "address"
        },
        {
          "internalType": "address",
          "name": "_initialOwner",
          "type": "address"
        },
        {
          "internalType": "int256",
          "name": "_cityMinLat",
          "type": "int256"
        },
        {
          "internalType": "int256",
          "name": "_cityMaxLat",
          "type": "int256"
        },
        {
          "internalType": "int256",
          "name": "_cityMinLng",
          "type": "int256"
        },
        {
          "internalType": "int256",
          "name": "_cityMaxLng",
          "type": "int256"
        },
        {
          "internalType": "uint256",
          "name": "_gridPrecision",
          "type": "uint256"
        }
      ],
      "stateMutability": "nonpayable",
      "type": "constructor"
    },
    {
      "inputs": [
        {
          "internalType": "address",
          "name": "owner",
          "type": "address"
        }
      ],
      "name": "OwnableInvalidOwner",
      "type": "error"
    },
    {
      "inputs": [
        {
          "internalType": "address",
          "name": "account",
          "type": "address"
        }
      ],
      "name": "OwnableUnauthorizedAccount",
      "type": "error"
    },
    {
      "inputs": [],
      "name": "ReentrancyGuardReentrantCall",
      "type": "error"
    },
    {
      "anonymous": false,
      "inputs": [
        {
          "indexed": true,
          "internalType": "address",
          "name": "citizen",
          "type": "address"
        }
      ],
      "name": "CitizenRegistered",
      "type": "event"
    },
    {
      "anonymous": false,
      "inputs": [
        {
          "indexed": false,
          "internalType": "address[]",
          "name": "citizens",
          "type": "address[]"
        }
      ],
      "name": "CitizensBatchRegistered",
      "type": "event"
    },
    {
      "anonymous": false,
      "inputs": [
        {
          "indexed": true,
          "internalType": "uint256",
          "name": "originalReportId",
          "type": "uint256"
        },
        {
          "indexed": true,
          "internalType": "address",
          "name": "duplicateReporter",
          "type": "address"
        },
        {
          "indexed": false,
          "internalType": "uint256",
          "name": "newDuplicateCount",
          "type": "uint256"
        },
        {
          "indexed": false,
          "internalType": "int256",
          "name": "latitude",
          "type": "int256"
        },
        {
          "indexed": false,
          "internalType": "int256",
          "name": "longitude",
          "type": "int256"
        },
        {
          "indexed": false,
          "internalType": "string",
          "name": "ipfsHash",
          "type": "string"
        }
      ],
      "name": "DuplicateReported",
      "type": "event"
    },
    {
      "anonymous": false,
      "inputs": [
        {
          "indexed": true,
          "internalType": "address",
          "name": "authority",
          "type": "address"
        }
      ],
      "name": "MunicipalAuthorityAdded",
      "type": "event"
    },
    {
      "anonymous": false,
      "inputs": [
        {
          "indexed": true,
          "internalType": "address",
          "name": "authority",
          "type": "address"
        }
      ],
      "name": "MunicipalAuthorityRemoved",
      "type": "event"
    },
    {
      "anonymous": false,
      "inputs": [
        {
          "indexed": true,
          "internalType": "address",
          "name": "previousOwner",
          "type": "address"
        },
        {
          "indexed": true,
          "internalType": "address",
          "name": "newOwner",
          "type": "address"
        }
      ],
      "name": "OwnershipTransferred",
      "type": "event"
    },
    {
      "anonymous": false,
      "inputs": [
        {
          "indexed": true,
          "internalType": "uint256",
          "name": "reportId",
          "type": "uint256"
        },
        {
          "indexed": true,
          "internalType": "address",
          "name": "rejectedBy",
          "type": "address"
        },
        {
          "indexed": false,
          "internalType": "string",
          "name": "reason",
          "type": "string"
        }
      ],
      "name": "PotholeRejected",
      "type": "event"
    },
    {
      "anonymous": false,
      "inputs": [
        {
          "indexed": true,
          "internalType": "uint256",
          "name": "reportId",
          "type": "uint256"
        },
        {
          "indexed": true,
          "internalType": "address",
          "name": "reporter",
          "type": "address"
        },
        {
          "indexed": false,
          "internalType": "int256",
          "name": "latitude",
          "type": "int256"
        },
        {
          "indexed": false,
          "internalType": "int256",
          "name": "longitude",
          "type": "int256"
        },
        {
          "indexed": false,
          "internalType": "string",
          "name": "ipfsHash",
          "type": "string"
        }
      ],
      "name": "PotholeReported",
      "type": "event"
    },
    {
      "anonymous": false,
      "inputs": [
        {
          "indexed": true,
          "internalType": "uint256",
          "name": "reportId",
          "type": "uint256"
        },
        {
          "indexed": false,
          "internalType": "enum PotholesRegistry.PotholeStatus",
          "name": "oldStatus",
          "type": "uint8"
        },
        {
          "indexed": false,
          "internalType": "enum PotholesRegistry.PotholeStatus",
          "name": "newStatus",
          "type": "uint8"
        },
        {
          "indexed": true,
          "internalType": "address",
          "name": "updatedBy",
          "type": "address"
        }
      ],
      "name": "PotholeStatusUpdated",
      "type": "event"
    },
    {
      "anonymous": false,
      "inputs": [
        {
          "indexed": false,
          "internalType": "uint256",
          "name": "originalReportReward",
          "type": "uint256"
        },
        {
          "indexed": false,
          "internalType": "uint256",
          "name": "duplicateReporterReward",
          "type": "uint256"
        },
        {
          "indexed": false,
          "internalType": "uint256",
          "name": "duplicateOriginalBonus",
          "type": "uint256"
        }
      ],
      "name": "RewardSettingsUpdated",
      "type": "event"
    },
    {
      "inputs": [
        {
          "internalType": "address",
          "name": "citizen",
          "type": "address"
        }
      ],
      "name": "addCitizen",
      "outputs": [],
      "stateMutability": "nonpayable",
      "type": "function"
    },
    {
      "inputs": [
        {
          "internalType": "address[]",
          "name": "citizens",
          "type": "address[]"
        }
      ],
      "name": "addCitizensBatch",
      "outputs": [],
      "stateMutability": "nonpayable",
      "type": "function"
    },
    {
      "inputs": [
        {
          "internalType": "address",
          "name": "authority",
          "type": "address"
        }
      ],
      "name": "addMunicipalAuthority",
      "outputs": [],
      "stateMutability": "nonpayable",
      "type": "function"
    },
    {
      "inputs": [
        {
          "internalType": "address",
          "name": "",
          "type": "address"
        }
      ],
      "name": "authorizedMunicipals",
      "outputs": [
        {
          "internalType": "bool",
          "name": "",
          "type": "bool"
        }
      ],
      "stateMutability": "view",
      "type": "function"
    },
    {
      "inputs": [
        {
          "internalType": "uint256[]",
          "name": "reportIds",
          "type": "uint256[]"
        },
        {
          "internalType": "enum PotholesRegistry.PotholeStatus",
          "name": "newStatus",
          "type": "uint8"
        }
      ],
      "name": "batchUpdateStatus",
      "outputs": [],
      "stateMutability": "nonpayable",
      "type": "function"
    },
    {
      "inputs": [],
      "name": "citizenCount",
      "outputs": [
        {
          "internalType": "uint256",
          "name": "",
          "type": "uint256"
        }
      ],
      "stateMutability": "view",
      "type": "function"
    },
    {
      "inputs": [],
      "name": "cityMaxLat",
      "outputs": [
        {
          "internalType": "int256",
          "name": "",
          "type": "int256"
        }
      ],
      "stateMutability": "view",
      "type": "function"
    },
    {
      "inputs": [],
      "name": "cityMaxLng",
      "outputs": [
        {
          "internalType": "int256",
          "name": "",
          "type": "int256"
        }
      ],
      "stateMutability": "view",
      "type": "function"
    },
    {
      "inputs": [],
      "name": "cityMinLat",
      "outputs": [
        {
          "internalType": "int256",
          "name": "",
          "type": "int256"
        }
      ],
      "stateMutability": "view",
      "type": "function"
    },
    {
      "inputs": [],
      "name": "cityMinLng",
      "outputs": [
        {
          "internalType": "int256",
          "name": "",
          "type": "int256"
        }
      ],
      "stateMutability": "view",
      "type": "function"
    },
    {
      "inputs": [],
      "name": "cityName",
      "outputs": [
        {
          "internalType": "string",
          "name": "",
          "type": "string"
        }
      ],
      "stateMutability": "view",
      "type": "function"
    },
    {
      "inputs": [],
      "name": "duplicateReporterReward",
      "outputs": [
        {
          "internalType": "uint256",
          "name": "",
          "type": "uint256"
        }
      ],
      "stateMutability": "view",
      "type": "function"
    },
    {
      "inputs": [
        {
          "internalType": "uint256",
          "name": "reportId",
          "type": "uint256"
        }
      ],
      "name": "getPriorityScore",
      "outputs": [
        {
          "internalType": "uint256",
          "name": "",
          "type": "uint256"
        }
      ],
      "stateMutability": "view",
      "type": "function"
    },
    {
      "inputs": [
        {
          "internalType": "uint256",
          "name": "reportId",
          "type": "uint256"
        }
      ],
      "name": "getReport",
      "outputs": [
        {
          "components": [
            {
              "internalType": "uint256",
              "name": "id",
              "type": "uint256"
            },
            {
              "internalType": "int256",
              "name": "latitude",
              "type": "int256"
            },
            {
              "internalType": "int256",
              "name": "longitude",
              "type": "int256"
            },
            {
              "internalType": "string",
              "name": "ipfsHash",
              "type": "string"
            },
            {
              "internalType": "uint256",
              "name": "duplicateCount",
              "type": "uint256"
            },
            {
              "internalType": "uint256",
              "name": "reportedAt",
              "type": "uint256"
            },
            {
              "internalType": "address",
              "name": "reporter",
              "type": "address"
            },
            {
              "internalType": "enum PotholesRegistry.PotholeStatus",
              "name": "status",
              "type": "uint8"
            }
          ],
          "internalType": "struct PotholesRegistry.PotholeReport",
          "name": "",
          "type": "tuple"
        }
      ],
      "stateMutability": "view",
      "type": "function"
    },
    {
      "inputs": [
        {
          "internalType": "uint256[]",
          "name": "reportIds",
          "type": "uint256[]"
        }
      ],
      "name": "getReportsBatch",
      "outputs": [
        {
          "components": [
            {
              "internalType": "uint256",
              "name": "id",
              "type": "uint256"
            },
            {
              "internalType": "int256",
              "name": "latitude",
              "type": "int256"
            },
            {
              "internalType": "int256",
              "name": "longitude",
              "type": "int256"
            },
            {
              "internalType": "string",
              "name": "ipfsHash",
              "type": "string"
            },
            {
              "internalType": "uint256",
              "name": "duplicateCount",
              "type": "uint256"
            },
            {
              "internalType": "uint256",
              "name": "reportedAt",
              "type": "uint256"
            },
            {
              "internalType": "address",
              "name": "reporter",
              "type": "address"
            },
            {
              "internalType": "enum PotholesRegistry.PotholeStatus",
              "name": "status",
              "type": "uint8"
            }
          ],
          "internalType": "struct PotholesRegistry.PotholeReport[]",
          "name": "",
          "type": "tuple[]"
        }
      ],
      "stateMutability": "view",
      "type": "function"
    },
    {
      "inputs": [],
      "name": "getTotalReports",
      "outputs": [
        {
          "internalType": "uint256",
          "name": "",
          "type": "uint256"
        }
      ],
      "stateMutability": "view",
      "type": "function"
    },
    {
      "inputs": [],
      "name": "grid_precision",
      "outputs": [
        {
          "internalType": "uint256",
          "name": "",
          "type": "uint256"
        }
      ],
      "stateMutability": "view",
      "type": "function"
    },
    {
      "inputs": [
        {
          "internalType": "address",
          "name": "user",
          "type": "address"
        },
        {
          "internalType": "uint256",
          "name": "reportId",
          "type": "uint256"
        }
      ],
      "name": "hasUserReported",
      "outputs": [
        {
          "internalType": "bool",
          "name": "",
          "type": "bool"
        }
      ],
      "stateMutability": "view",
      "type": "function"
    },
    {
      "inputs": [
        {
          "internalType": "address",
          "name": "forwarder",
          "type": "address"
        }
      ],
      "name": "isTrustedForwarder",
      "outputs": [
        {
          "internalType": "bool",
          "name": "",
          "type": "bool"
        }
      ],
      "stateMutability": "view",
      "type": "function"
    },
    {
      "inputs": [
        {
          "internalType": "bytes32",
          "name": "",
          "type": "bytes32"
        }
      ],
      "name": "locationToReportId",
      "outputs": [
        {
          "internalType": "uint256",
          "name": "",
          "type": "uint256"
        }
      ],
      "stateMutability": "view",
      "type": "function"
    },
    {
      "inputs": [],
      "name": "nextReportId",
      "outputs": [
        {
          "internalType": "uint256",
          "name": "",
          "type": "uint256"
        }
      ],
      "stateMutability": "view",
      "type": "function"
    },
    {
      "inputs": [],
      "name": "originalReportFixedReward",
      "outputs": [
        {
          "internalType": "uint256",
          "name": "",
          "type": "uint256"
        }
      ],
      "stateMutability": "view",
      "type": "function"
    },
    {
      "inputs": [],
      "name": "originalReportReward",
      "outputs": [
        {
          "internalType": "uint256",
          "name": "",
          "type": "uint256"
        }
      ],
      "stateMutability": "view",
      "type": "function"
    },
    {
      "inputs": [],
      "name": "owner",
      "outputs": [
        {
          "internalType": "address",
          "name": "",
          "type": "address"
        }
      ],
      "stateMutability": "view",
      "type": "function"
    },
    {
      "inputs": [],
      "name": "pause",
      "outputs": [],
      "stateMutability": "nonpayable",
      "type": "function"
    },
    {
      "inputs": [],
      "name": "potholeToken",
      "outputs": [
        {
          "internalType": "contract IPotholesToken",
          "name": "",
          "type": "address"
        }
      ],
      "stateMutability": "view",
      "type": "function"
    },
    {
      "inputs": [
        {
          "internalType": "address",
          "name": "",
          "type": "address"
        }
      ],
      "name": "registeredCitizens",
      "outputs": [
        {
          "internalType": "bool",
          "name": "",
          "type": "bool"
        }
      ],
      "stateMutability": "view",
      "type": "function"
    },
    {
      "inputs": [
        {
          "internalType": "uint256",
          "name": "reportId",
          "type": "uint256"
        },
        {
          "internalType": "string",
          "name": "reason",
          "type": "string"
        }
      ],
      "name": "rejectReport",
      "outputs": [],
      "stateMutability": "nonpayable",
      "type": "function"
    },
    {
      "inputs": [
        {
          "internalType": "address",
          "name": "citizen",
          "type": "address"
        }
      ],
      "name": "removeCitizen",
      "outputs": [],
      "stateMutability": "nonpayable",
      "type": "function"
    },
    {
      "inputs": [
        {
          "internalType": "address",
          "name": "authority",
          "type": "address"
        }
      ],
      "name": "removeMunicipalAuthority",
      "outputs": [],
      "stateMutability": "nonpayable",
      "type": "function"
    },
    {
      "inputs": [],
      "name": "renounceOwnership",
      "outputs": [],
      "stateMutability": "nonpayable",
      "type": "function"
    },
    {
      "inputs": [
        {
          "internalType": "uint256",
          "name": "",
          "type": "uint256"
        }
      ],
      "name": "reports",
      "outputs": [
        {
          "internalType": "uint256",
          "name": "id",
          "type": "uint256"
        },
        {
          "internalType": "int256",
          "name": "latitude",
          "type": "int256"
        },
        {
          "internalType": "int256",
          "name": "longitude",
          "type": "int256"
        },
        {
          "internalType": "string",
          "name": "ipfsHash",
          "type": "string"
        },
        {
          "internalType": "uint256",
          "name": "duplicateCount",
          "type": "uint256"
        },
        {
          "internalType": "uint256",
          "name": "reportedAt",
          "type": "uint256"
        },
        {
          "internalType": "address",
          "name": "reporter",
          "type": "address"
        },
        {
          "internalType": "enum PotholesRegistry.PotholeStatus",
          "name": "status",
          "type": "uint8"
        }
      ],
      "stateMutability": "view",
      "type": "function"
    },
    {
      "inputs": [
        {
          "internalType": "int256",
          "name": "latitude",
          "type": "int256"
        },
        {
          "internalType": "int256",
          "name": "longitude",
          "type": "int256"
        },
        {
          "internalType": "string",
          "name": "ipfsHash",
          "type": "string"
        }
      ],
      "name": "submitReport",
      "outputs": [
        {
          "internalType": "uint256",
          "name": "",
          "type": "uint256"
        }
      ],
      "stateMutability": "nonpayable",
      "type": "function"
    },
    {
      "inputs": [],
      "name": "totalReports",
      "outputs": [
        {
          "internalType": "uint256",
          "name": "",
          "type": "uint256"
        }
      ],
      "stateMutability": "view",
      "type": "function"
    },
    {
      "inputs": [
        {
          "internalType": "address",
          "name": "newOwner",
          "type": "address"
        }
      ],
      "name": "transferOwnership",
      "outputs": [],
      "stateMutability": "nonpayable",
      "type": "function"
    },
    {
      "inputs": [],
      "name": "trustedForwarder",
      "outputs": [
        {
          "internalType": "address",
          "name": "",
          "type": "address"
        }
      ],
      "stateMutability": "view",
      "type": "function"
    },
    {
      "inputs": [
        {
          "internalType": "uint256",
          "name": "reportId",
          "type": "uint256"
        },
        {
          "internalType": "enum PotholesRegistry.PotholeStatus",
          "name": "newStatus",
          "type": "uint8"
        }
      ],
      "name": "updateReportStatus",
      "outputs": [],
      "stateMutability": "nonpayable",
      "type": "function"
    },
    {
      "inputs": [
        {
          "internalType": "uint256",
          "name": "_originalReportReward",
          "type": "uint256"
        },
        {
          "internalType": "uint256",
          "name": "_duplicateReporterReward",
          "type": "uint256"
        },
        {
          "internalType": "uint256",
          "name": "_originalReportFixedReward",
          "type": "uint256"
        }
      ],
      "name": "updateRewardSettings",
      "outputs": [],
      "stateMutability": "nonpayable",
      "type": "function"
    },
    {
      "inputs": [
        {
          "internalType": "address",
          "name": "",
          "type": "address"
        },
        {
          "internalType": "uint256",
          "name": "",
          "type": "uint256"
        }
      ],
      "name": "userReportedLocation",
      "outputs": [
        {
          "internalType": "bool",
          "name": "",
          "type": "bool"
        }
      ],
      "stateMutability": "view",
      "type": "function"
    }
  ],
  "bytecode": "0x6101606040526001600355678ac7230489e80000600455671bc16d674ec80000600555674563918244f40000600655348015610039575f5ffd5b50604051614a9b380380614a9b833981810160405281019061005b9190610464565b85878073ffffffffffffffffffffffffffffffffffffffff1660808173ffffffffffffffffffffffffffffffffffffffff1681525050505f73ffffffffffffffffffffffffffffffffffffffff168173ffffffffffffffffffffffffffffffffffffffff1603610102575f6040517f1e4fbdf70000000000000000000000000000000000000000000000000000000081526004016100f99190610553565b60405180910390fd5b6101118161019660201b60201c565b506001808190555088600290816101289190610773565b508773ffffffffffffffffffffffffffffffffffffffff1660a08173ffffffffffffffffffffffffffffffffffffffff16815250508460c081815250508360e08181525050826101008181525050816101208181525050806101408181525050505050505050505050610842565b5f5f5f9054906101000a900473ffffffffffffffffffffffffffffffffffffffff169050815f5f6101000a81548173ffffffffffffffffffffffffffffffffffffffff021916908373ffffffffffffffffffffffffffffffffffffffff1602179055508173ffffffffffffffffffffffffffffffffffffffff168173ffffffffffffffffffffffffffffffffffffffff167f8be0079c531659141344cd1fd0a4f28419497f9722a3daafe3b4186f6b6457e060405160405180910390a35050565b5f604051905090565b5f5ffd5b5f5ffd5b5f5ffd5b5f5ffd5b5f601f19601f8301169050919050565b7f4e487b71000000000000000000000000000000000000000000000000000000005f52604160045260245ffd5b6102b682610270565b810181811067ffffffffffffffff821117156102d5576102d4610280565b5b80604052505050565b5f6102e7610257565b90506102f382826102ad565b919050565b5f67ffffffffffffffff82111561031257610311610280565b5b61031b82610270565b9050602081019050919050565b8281835e5f83830152505050565b5f610348610343846102f8565b6102de565b9050828152602081018484840111156103645761036361026c565b5b61036f848285610328565b509392505050565b5f82601f83011261038b5761038a610268565b5b815161039b848260208601610336565b91505092915050565b5f73ffffffffffffffffffffffffffffffffffffffff82169050919050565b5f6103cd826103a4565b9050919050565b6103dd816103c3565b81146103e7575f5ffd5b50565b5f815190506103f8816103d4565b92915050565b5f819050919050565b610410816103fe565b811461041a575f5ffd5b50565b5f8151905061042b81610407565b92915050565b5f819050919050565b61044381610431565b811461044d575f5ffd5b50565b5f8151905061045e8161043a565b92915050565b5f5f5f5f5f5f5f5f5f6101208a8c03121561048257610481610260565b5b5f8a015167ffffffffffffffff81111561049f5761049e610264565b5b6104ab8c828d01610377565b99505060206104bc8c828d016103ea565b98505060406104cd8c828d016103ea565b97505060606104de8c828d016103ea565b96505060806104ef8c828d0161041d565b95505060a06105008c828d0161041d565b94505060c06105118c828d0161041d565b93505060e06105228c828d0161041d565b9250506101006105348c828d01610450565b9150509295985092959850929598565b61054d816103c3565b82525050565b5f6020820190506105665f830184610544565b92915050565b5f81519050919050565b7f4e487b71000000000000000000000000000000000000000000000000000000005f52602260045260245ffd5b5f60028204905060018216806105ba57607f821691505b6020821081036105cd576105cc610576565b5b50919050565b5f819050815f5260205f209050919050565b5f6020601f8301049050919050565b5f82821b905092915050565b5f6008830261062f7fffffffffffffffffffffffffffffffffffffffffffffffffffffffffffffffff826105f4565b61063986836105f4565b95508019841693508086168417925050509392505050565b5f819050919050565b5f61067461066f61066a84610431565b610651565b610431565b9050919050565b5f819050919050565b61068d8361065a565b6106a16106998261067b565b848454610600565b825550505050565b5f5f905090565b6106b86106a9565b6106c3818484610684565b505050565b5b818110156106e6576106db5f826106b0565b6001810190506106c9565b5050565b601f82111561072b576106fc816105d3565b610705846105e5565b81016020851015610714578190505b610728610720856105e5565b8301826106c8565b50505b505050565b5f82821c905092915050565b5f61074b5f1984600802610730565b1980831691505092915050565b5f610763838361073c565b9150826002028217905092915050565b61077c8261056c565b67ffffffffffffffff81111561079557610794610280565b5b61079f82546105a3565b6107aa8282856106ea565b5f60209050601f8311600181146107db575f84156107c9578287015190505b6107d38582610758565b86555061083a565b601f1984166107e9866105d3565b5f5b82811015610810578489015182556001820191506020850194506020810190506107eb565b8683101561082d5784890151610829601f89168261073c565b8355505b6001600288020188555050505b505050505050565b60805160a05160c05160e0516101005161012051610140516141d06108cb5f395f81816110920152818161278b01526127ba01525f81816114de015261165501525f818161162a0152611f7b01525f818161096701526115c601525f8181610764015261159b01525f818161212901528181612374015261246901525f6110ed01526141d05ff3fe608060405234801561000f575f5ffd5b506004361061023b575f3560e01c80637d88276d11610139578063b9c2c260116100b6578063e004ccdc1161007a578063e004ccdc146106d0578063ea237bca146106ee578063f2fde38b1461070c578063f3ed597614610728578063fe4de2f5146107445761023b565b8063b9c2c260146105ff578063bc22f7371461061b578063c4a8b8851461064b578063c942adf71461067b578063d4e99500146106b25761023b565b80639bf4dd0a116100fd5780639bf4dd0a14610547578063a382ebfe14610563578063a9a30a3414610593578063b00eba4f146105b1578063b6939e63146105cf5761023b565b80637d88276d146104a15780637da0a877146104d15780638456cb59146104ef5780638da5cb5b146104f957806390259ee2146105175761023b565b80633fcf84ac116101c75780635b4c777d1161018b5780635b4c777d1461041f5780636476cd531461043d5780636bcddef11461045b5780636e79bbf614610479578063715018a6146104975761023b565b80633fcf84ac1461035557806343e62436146103735780634ddfc0e3146103a35780634e7f9b19146103bf578063572b6c05146103ef5761023b565b80632554d8881161020e5780632554d888146102b35780632ceb9e91146102d15780632e97acf8146102ed57806330fcf2d7146103095780633920dfdf146103395761023b565b8063014c880b1461023f5780630f3a25701461025d57806313cf72481461027957806314c7f35014610295575b5f5ffd5b610247610762565b6040516102549190612925565b60405180910390f35b610277600480360381019061027291906129da565b610786565b005b610293600480360381019061028e9190612a37565b610908565b005b61029d610965565b6040516102aa9190612925565b60405180910390f35b6102bb610989565b6040516102c89190612a96565b60405180910390f35b6102eb60048036038101906102e69190612b09565b61098f565b005b61030760048036038101906103029190612b89565b610a32565b005b610323600480360381019061031e9190612c07565b610b9e565b6040516103309190612a96565b60405180910390f35b610353600480360381019061034e9190612b09565b610bb3565b005b61035d610cf7565b60405161036a9190612a96565b60405180910390f35b61038d60048036038101906103889190612b09565b610cfd565b60405161039a9190612c4c565b60405180910390f35b6103bd60048036038101906103b89190612cdd565b610d1a565b005b6103d960048036038101906103d49190612d3a565b610e78565b6040516103e69190612f22565b60405180910390f35b61040960048036038101906104049190612b09565b611046565b6040516104169190612c4c565b60405180910390f35b610427611084565b6040516104349190612a96565b60405180910390f35b61044561108a565b6040516104529190612a96565b60405180910390f35b610463611090565b6040516104709190612a96565b60405180910390f35b6104816110b4565b60405161048e9190612a96565b60405180910390f35b61049f6110ba565b005b6104bb60048036038101906104b69190612b09565b6110cd565b6040516104c89190612c4c565b60405180910390f35b6104d96110ea565b6040516104e69190612f51565b60405180910390f35b6104f7611111565b005b61050161111b565b60405161050e9190612f51565b60405180910390f35b610531600480360381019061052c9190612f6a565b611142565b60405161053e9190612c4c565b60405180910390f35b610561600480360381019061055c9190612b09565b61116c565b005b61057d60048036038101906105789190612fa8565b61126b565b60405161058a919061315b565b60405180910390f35b61059b6114dc565b6040516105a89190612925565b60405180910390f35b6105b9611500565b6040516105c69190612a96565b60405180910390f35b6105e960048036038101906105e491906131a5565b611506565b6040516105f69190612a96565b60405180910390f35b61061960048036038101906106149190612b09565b611c70565b005b61063560048036038101906106309190612d3a565b611d12565b6040516106429190612a96565b60405180910390f35b61066560048036038101906106609190612f6a565b611d80565b6040516106729190612c4c565b60405180910390f35b61069560048036038101906106909190612d3a565b611de2565b6040516106a998979695949392919061326d565b60405180910390f35b6106ba611ed8565b6040516106c79190612a96565b60405180910390f35b6106d8611eed565b6040516106e591906132f0565b60405180910390f35b6106f6611f79565b6040516107039190612925565b60405180910390f35b61072660048036038101906107219190612b09565b611f9d565b005b610742600480360381019061073d9190613310565b612021565b005b61074c612127565b60405161075991906133a9565b60405180910390f35b7f000000000000000000000000000000000000000000000000000000000000000081565b600b5f61079161214b565b73ffffffffffffffffffffffffffffffffffffffff1673ffffffffffffffffffffffffffffffffffffffff1681526020019081526020015f205f9054906101000a900460ff16610816576040517f08c379a000000000000000000000000000000000000000000000000000000000815260040161080d90613432565b60405180910390fd5b825f81118015610827575060035481105b610866576040517f08c379a000000000000000000000000000000000000000000000000000000000815260040161085d9061349a565b60405180910390fd5b5f83839050116108ab576040517f08c379a00000000000000000000000000000000000000000000000000000000081526004016108a290613502565b60405180910390fd5b6109028460036108b961214b565b86868080601f0160208091040260200160405190810160405280939291908181526020018383808284375f81840152601f19601f82011690508083019250505050505050612159565b50505050565b6109106125f9565b8260048190555081600581905550806006819055507f81c63e7bb4b778ca83ee814a9371c4cfc70057222a35cb428fd7088d6edcb3e183838360405161095893929190613520565b60405180910390a1505050565b7f000000000000000000000000000000000000000000000000000000000000000081565b60055481565b6109976125f9565b6001600b5f8373ffffffffffffffffffffffffffffffffffffffff1673ffffffffffffffffffffffffffffffffffffffff1681526020019081526020015f205f6101000a81548160ff0219169083151502179055508073ffffffffffffffffffffffffffffffffffffffff167f5d3801481b7920325488e9878c76ee13e4e86aa62da34683c762c285cd18dac860405160405180910390a250565b610a3a6125f9565b5f5f90505b82829050811015610b605760095f848484818110610a6057610a5f613555565b5b9050602002016020810190610a759190612b09565b73ffffffffffffffffffffffffffffffffffffffff1673ffffffffffffffffffffffffffffffffffffffff1681526020019081526020015f205f9054906101000a900460ff16610b5357600160095f858585818110610ad757610ad6613555565b5b9050602002016020810190610aec9190612b09565b73ffffffffffffffffffffffffffffffffffffffff1673ffffffffffffffffffffffffffffffffffffffff1681526020019081526020015f205f6101000a81548160ff021916908315150217905550600c5f815480929190610b4d906135af565b91905055505b8080600101915050610a3f565b507f47f767a915c2384f040e36bf8fa54416b8f9b7c95cf927d4729e67c424a196788282604051610b929291906136a3565b60405180910390a15050565b6008602052805f5260405f205f915090505481565b610bbb6125f9565b60095f8273ffffffffffffffffffffffffffffffffffffffff1673ffffffffffffffffffffffffffffffffffffffff1681526020019081526020015f205f9054906101000a900460ff1615610c45576040517f08c379a0000000000000000000000000000000000000000000000000000000008152600401610c3c9061370f565b60405180910390fd5b600160095f8373ffffffffffffffffffffffffffffffffffffffff1673ffffffffffffffffffffffffffffffffffffffff1681526020019081526020015f205f6101000a81548160ff021916908315150217905550600c5f815480929190610cac906135af565b91905055508073ffffffffffffffffffffffffffffffffffffffff167fb5598409719558ebd54a454803d5d44a0b2ae7d77be5ea208f6a3b9698a2cb5860405160405180910390a250565b60065481565b600b602052805f5260405f205f915054906101000a900460ff1681565b600b5f610d2561214b565b73ffffffffffffffffffffffffffffffffffffffff1673ffffffffffffffffffffffffffffffffffffffff1681526020019081526020015f205f9054906101000a900460ff16610daa576040517f08c379a0000000000000000000000000000000000000000000000000000000008152600401610da190613432565b60405180910390fd5b5f610db361214b565b90505f5f90505b84849050811015610e71575f858583818110610dd957610dd8613555565b5b9050602002013590505f81118015610df2575060035481105b8015610e435750836003811115610e0c57610e0b612e02565b5b60075f8381526020019081526020015f2060060160149054906101000a900460ff166003811115610e4057610e3f612e02565b5b14155b15610e6357610e6281858560405180602001604052805f815250612159565b5b508080600101915050610dba565b5050505050565b610e806128a7565b815f81118015610e91575060035481105b610ed0576040517f08c379a0000000000000000000000000000000000000000000000000000000008152600401610ec79061349a565b60405180910390fd5b60075f8481526020019081526020015f20604051806101000160405290815f82015481526020016001820154815260200160028201548152602001600382018054610f1a9061375a565b80601f0160208091040260200160405190810160405280929190818152602001828054610f469061375a565b8015610f915780601f10610f6857610100808354040283529160200191610f91565b820191905f5260205f20905b815481529060010190602001808311610f7457829003601f168201915b505050505081526020016004820154815260200160058201548152602001600682015f9054906101000a900473ffffffffffffffffffffffffffffffffffffffff1673ffffffffffffffffffffffffffffffffffffffff1673ffffffffffffffffffffffffffffffffffffffff1681526020016006820160149054906101000a900460ff16600381111561102857611027612e02565b5b600381111561103a57611039612e02565b5b81525050915050919050565b5f61104f6110ea565b73ffffffffffffffffffffffffffffffffffffffff168273ffffffffffffffffffffffffffffffffffffffff16149050919050565b600c5481565b60045481565b7f000000000000000000000000000000000000000000000000000000000000000081565b60035481565b6110c26125f9565b6110cb5f612680565b565b6009602052805f5260405f205f915054906101000a900460ff1681565b5f7f0000000000000000000000000000000000000000000000000000000000000000905090565b6111196125f9565b565b5f5f5f9054906101000a900473ffffffffffffffffffffffffffffffffffffffff16905090565b600a602052815f5260405f20602052805f5260405f205f915091509054906101000a900460ff1681565b6111746125f9565b60095f8273ffffffffffffffffffffffffffffffffffffffff1673ffffffffffffffffffffffffffffffffffffffff1681526020019081526020015f205f9054906101000a900460ff166111fd576040517f08c379a00000000000000000000000000000000000000000000000000000000081526004016111f4906137d4565b60405180910390fd5b5f60095f8373ffffffffffffffffffffffffffffffffffffffff1673ffffffffffffffffffffffffffffffffffffffff1681526020019081526020015f205f6101000a81548160ff021916908315150217905550600c5f815480929190611263906137f2565b919050555050565b60605f8383905067ffffffffffffffff81111561128b5761128a613819565b5b6040519080825280602002602001820160405280156112c457816020015b6112b16128a7565b8152602001906001900390816112a95790505b5090505f5f90505b848490508110156114d1575f8585838181106112eb576112ea613555565b5b9050602002013511801561131957506003548585838181106113105761130f613555565b5b90506020020135105b156114c45760075f86868481811061133457611333613555565b5b9050602002013581526020019081526020015f20604051806101000160405290815f820154815260200160018201548152602001600282015481526020016003820180546113819061375a565b80601f01602080910402602001604051908101604052809291908181526020018280546113ad9061375a565b80156113f85780601f106113cf576101008083540402835291602001916113f8565b820191905f5260205f20905b8154815290600101906020018083116113db57829003601f168201915b505050505081526020016004820154815260200160058201548152602001600682015f9054906101000a900473ffffffffffffffffffffffffffffffffffffffff1673ffffffffffffffffffffffffffffffffffffffff1673ffffffffffffffffffffffffffffffffffffffff1681526020016006820160149054906101000a900460ff16600381111561148f5761148e612e02565b5b60038111156114a1576114a0612e02565b5b815250508282815181106114b8576114b7613555565b5b60200260200101819052505b80806001019150506112cc565b508091505092915050565b7f000000000000000000000000000000000000000000000000000000000000000081565b600d5481565b5f60095f61151261214b565b73ffffffffffffffffffffffffffffffffffffffff1673ffffffffffffffffffffffffffffffffffffffff1681526020019081526020015f205f9054906101000a900460ff16611597576040517f08c379a000000000000000000000000000000000000000000000000000000000815260040161158e90613890565b60405180910390fd5b84847f000000000000000000000000000000000000000000000000000000000000000082121580156115e957507f00000000000000000000000000000000000000000000000000000000000000008213155b611628576040517f08c379a000000000000000000000000000000000000000000000000000000000815260040161161f906138f8565b60405180910390fd5b7f0000000000000000000000000000000000000000000000000000000000000000811215801561167857507f00000000000000000000000000000000000000000000000000000000000000008113155b6116b7576040517f08c379a00000000000000000000000000000000000000000000000000000000081526004016116ae90613960565b60405180910390fd5b6116bf612741565b5f8585905011611704576040517f08c379a00000000000000000000000000000000000000000000000000000000081526004016116fb906139c8565b60405180910390fd5b5f61170f8888612787565b90505f60085f8381526020019081526020015f205490505f60075f8381526020019081526020015f2060060160149054906101000a900460ff1690506001600381111561175f5761175e612e02565b5b81600381111561177257611771612e02565b5b036117b2576040517f08c379a00000000000000000000000000000000000000000000000000000000081526004016117a990613a56565b60405180910390fd5b5f821415801561181757506003808111156117d0576117cf612e02565b5b8160038111156117e3576117e2612e02565b5b14158015611816575060026003811115611800576117ff612e02565b5b81600381111561181357611812612e02565b5b14155b5b156119cd57600a5f61182761214b565b73ffffffffffffffffffffffffffffffffffffffff1673ffffffffffffffffffffffffffffffffffffffff1681526020019081526020015f205f8381526020019081526020015f205f9054906101000a900460ff16156118bc576040517f08c379a00000000000000000000000000000000000000000000000000000000081526004016118b390613ae4565b60405180910390fd5b6001600a5f6118c961214b565b73ffffffffffffffffffffffffffffffffffffffff1673ffffffffffffffffffffffffffffffffffffffff1681526020019081526020015f205f8481526020019081526020015f205f6101000a81548160ff02191690831515021790555060075f8381526020019081526020015f206004015f81548092919061194b906135af565b919050555061195861214b565b73ffffffffffffffffffffffffffffffffffffffff16827f3879dd57505e8a84ac504fd34e6d53fa1d12dde58d22ffb23cae1ab00a99658b60075f8681526020019081526020015f20600401548d8d8d8d6040516119ba959493929190613b3c565b60405180910390a3819550505050611c5e565b5f60035f8154809291906119e0906135af565b9190505590506040518061010001604052808281526020018c81526020018b81526020018a8a8080601f0160208091040260200160405190810160405280939291908181526020018383808284375f81840152601f19601f8201169050808301925050505050505081526020015f8152602001428152602001611a6161214b565b73ffffffffffffffffffffffffffffffffffffffff1681526020015f6003811115611a8f57611a8e612e02565b5b81525060075f8381526020019081526020015f205f820151815f015560208201518160010155604082015181600201556060820151816003019081611ad49190613d1f565b506080820151816004015560a0820151816005015560c0820151816006015f6101000a81548173ffffffffffffffffffffffffffffffffffffffff021916908373ffffffffffffffffffffffffffffffffffffffff16021790555060e08201518160060160146101000a81548160ff02191690836003811115611b5a57611b59612e02565b5b02179055509050508060085f8681526020019081526020015f20819055506001600a5f611b8561214b565b73ffffffffffffffffffffffffffffffffffffffff1673ffffffffffffffffffffffffffffffffffffffff1681526020019081526020015f205f8381526020019081526020015f205f6101000a81548160ff021916908315150217905550600d5f815480929190611bf5906135af565b9190505550611c0261214b565b73ffffffffffffffffffffffffffffffffffffffff16817fedfd59fc8d20e38b911881251ae023955c73f63676d6c42991fb147e860205718d8d8d8d604051611c4e9493929190613dee565b60405180910390a3809650505050505b611c66612819565b5050949350505050565b611c786125f9565b5f600b5f8373ffffffffffffffffffffffffffffffffffffffff1673ffffffffffffffffffffffffffffffffffffffff1681526020019081526020015f205f6101000a81548160ff0219169083151502179055508073ffffffffffffffffffffffffffffffffffffffff167f08352b96180b75a898e55b04cd75501819256dec10cd7992d5d9d5b5af6a8c1d60405160405180910390a250565b5f815f81118015611d24575060035481105b611d63576040517f08c379a0000000000000000000000000000000000000000000000000000000008152600401611d5a9061349a565b60405180910390fd5b60075f8481526020019081526020015f2060040154915050919050565b5f600a5f8473ffffffffffffffffffffffffffffffffffffffff1673ffffffffffffffffffffffffffffffffffffffff1681526020019081526020015f205f8381526020019081526020015f205f9054906101000a900460ff16905092915050565b6007602052805f5260405f205f91509050805f015490806001015490806002015490806003018054611e139061375a565b80601f0160208091040260200160405190810160405280929190818152602001828054611e3f9061375a565b8015611e8a5780601f10611e6157610100808354040283529160200191611e8a565b820191905f5260205f20905b815481529060010190602001808311611e6d57829003601f168201915b505050505090806004015490806005015490806006015f9054906101000a900473ffffffffffffffffffffffffffffffffffffffff16908060060160149054906101000a900460ff16905088565b5f6001600354611ee89190613e2c565b905090565b60028054611efa9061375a565b80601f0160208091040260200160405190810160405280929190818152602001828054611f269061375a565b8015611f715780601f10611f4857610100808354040283529160200191611f71565b820191905f5260205f20905b815481529060010190602001808311611f5457829003601f168201915b505050505081565b7f000000000000000000000000000000000000000000000000000000000000000081565b611fa56125f9565b5f73ffffffffffffffffffffffffffffffffffffffff168173ffffffffffffffffffffffffffffffffffffffff1603612015575f6040517f1e4fbdf700000000000000000000000000000000000000000000000000000000815260040161200c9190612f51565b60405180910390fd5b61201e81612680565b50565b600b5f61202c61214b565b73ffffffffffffffffffffffffffffffffffffffff1673ffffffffffffffffffffffffffffffffffffffff1681526020019081526020015f205f9054906101000a900460ff166120b1576040517f08c379a00000000000000000000000000000000000000000000000000000000081526004016120a890613432565b60405180910390fd5b815f811180156120c2575060035481105b612101576040517f08c379a00000000000000000000000000000000000000000000000000000000081526004016120f89061349a565b60405180910390fd5b612122838361210e61214b565b60405180602001604052805f815250612159565b505050565b7f000000000000000000000000000000000000000000000000000000000000000081565b5f612154612822565b905090565b5f84118015612169575060035484105b6121a8576040517f08c379a000000000000000000000000000000000000000000000000000000000815260040161219f9061349a565b60405180910390fd5b5f60075f8681526020019081526020015f2060060160149054906101000a900460ff1690508360038111156121e0576121df612e02565b5b8160038111156121f3576121f2612e02565b5b03612233576040517f08c379a000000000000000000000000000000000000000000000000000000000815260040161222a90613ea9565b60405180910390fd5b60038081111561224657612245612e02565b5b81600381111561225957612258612e02565b5b03612299576040517f08c379a000000000000000000000000000000000000000000000000000000000815260040161229090613f11565b60405180910390fd5b600260038111156122ad576122ac612e02565b5b8160038111156122c0576122bf612e02565b5b03612300576040517f08c379a00000000000000000000000000000000000000000000000000000000081526004016122f790613f79565b60405180910390fd5b8360075f8781526020019081526020015f2060060160146101000a81548160ff0219169083600381111561233757612336612e02565b5b0217905550600160038111156123505761234f612e02565b5b84600381111561236357612362612e02565b5b03612431575f6004541115612430577f000000000000000000000000000000000000000000000000000000000000000073ffffffffffffffffffffffffffffffffffffffff166340c10f1960075f8881526020019081526020015f206006015f9054906101000a900473ffffffffffffffffffffffffffffffffffffffff166004546040518363ffffffff1660e01b8152600401612402929190613f97565b5f604051808303815f87803b158015612419575f5ffd5b505af115801561242b573d5f5f3e3d5ffd5b505050505b5b6002600381111561244557612444612e02565b5b84600381111561245857612457612e02565b5b03612526575f6006541115612525577f000000000000000000000000000000000000000000000000000000000000000073ffffffffffffffffffffffffffffffffffffffff166340c10f1960075f8881526020019081526020015f206006015f9054906101000a900473ffffffffffffffffffffffffffffffffffffffff166006546040518363ffffffff1660e01b81526004016124f7929190613f97565b5f604051808303815f87803b15801561250e575f5ffd5b505af1158015612520573d5f5f3e3d5ffd5b505050505b5b60038081111561253957612538612e02565b5b84600381111561254c5761254b612e02565b5b036125a1578273ffffffffffffffffffffffffffffffffffffffff16857f680ece1b23982e94b6ad4eaac3516c85a1a180e5d8534ece0958acf5cc5550cd8460405161259891906132f0565b60405180910390a35b8273ffffffffffffffffffffffffffffffffffffffff16857fb7b408e0733e6eaa913dccb39577cd0fceb3653d0f699a2813216f38bbd1dc2883876040516125ea929190613fbe565b60405180910390a35050505050565b61260161214b565b73ffffffffffffffffffffffffffffffffffffffff1661261f61111b565b73ffffffffffffffffffffffffffffffffffffffff161461267e5761264261214b565b6040517f118cdaa70000000000000000000000000000000000000000000000000000000081526004016126759190612f51565b60405180910390fd5b565b5f5f5f9054906101000a900473ffffffffffffffffffffffffffffffffffffffff169050815f5f6101000a81548173ffffffffffffffffffffffffffffffffffffffff021916908373ffffffffffffffffffffffffffffffffffffffff1602179055508173ffffffffffffffffffffffffffffffffffffffff168173ffffffffffffffffffffffffffffffffffffffff167f8be0079c531659141344cd1fd0a4f28419497f9722a3daafe3b4186f6b6457e060405160405180910390a35050565b60026001540361277d576040517f3ee5aeb500000000000000000000000000000000000000000000000000000000815260040160405180910390fd5b6002600181905550565b5f5f7f0000000000000000000000000000000000000000000000000000000000000000846127b59190614012565b90505f7f0000000000000000000000000000000000000000000000000000000000000000846127e49190614012565b905081816040516020016127f992919061409a565b604051602081830303815290604052805190602001209250505092915050565b60018081905550565b5f5f5f36905090505f61283361288a565b905080821015801561284a575061284933611046565b5b1561287a575f36828403908092612863939291906140cd565b9061286e919061413c565b60601c92505050612887565b612882612898565b925050505b90565b5f61289361289f565b905090565b5f33905090565b5f6014905090565b6040518061010001604052805f81526020015f81526020015f8152602001606081526020015f81526020015f81526020015f73ffffffffffffffffffffffffffffffffffffffff1681526020015f600381111561290757612906612e02565b5b81525090565b5f819050919050565b61291f8161290d565b82525050565b5f6020820190506129385f830184612916565b92915050565b5f5ffd5b5f5ffd5b5f819050919050565b61295881612946565b8114612962575f5ffd5b50565b5f813590506129738161294f565b92915050565b5f5ffd5b5f5ffd5b5f5ffd5b5f5f83601f84011261299a57612999612979565b5b8235905067ffffffffffffffff8111156129b7576129b661297d565b5b6020830191508360018202830111156129d3576129d2612981565b5b9250929050565b5f5f5f604084860312156129f1576129f061293e565b5b5f6129fe86828701612965565b935050602084013567ffffffffffffffff811115612a1f57612a1e612942565b5b612a2b86828701612985565b92509250509250925092565b5f5f5f60608486031215612a4e57612a4d61293e565b5b5f612a5b86828701612965565b9350506020612a6c86828701612965565b9250506040612a7d86828701612965565b9150509250925092565b612a9081612946565b82525050565b5f602082019050612aa95f830184612a87565b92915050565b5f73ffffffffffffffffffffffffffffffffffffffff82169050919050565b5f612ad882612aaf565b9050919050565b612ae881612ace565b8114612af2575f5ffd5b50565b5f81359050612b0381612adf565b92915050565b5f60208284031215612b1e57612b1d61293e565b5b5f612b2b84828501612af5565b91505092915050565b5f5f83601f840112612b4957612b48612979565b5b8235905067ffffffffffffffff811115612b6657612b6561297d565b5b602083019150836020820283011115612b8257612b81612981565b5b9250929050565b5f5f60208385031215612b9f57612b9e61293e565b5b5f83013567ffffffffffffffff811115612bbc57612bbb612942565b5b612bc885828601612b34565b92509250509250929050565b5f819050919050565b612be681612bd4565b8114612bf0575f5ffd5b50565b5f81359050612c0181612bdd565b92915050565b5f60208284031215612c1c57612c1b61293e565b5b5f612c2984828501612bf3565b91505092915050565b5f8115159050919050565b612c4681612c32565b82525050565b5f602082019050612c5f5f830184612c3d565b92915050565b5f5f83601f840112612c7a57612c79612979565b5b8235905067ffffffffffffffff811115612c9757612c9661297d565b5b602083019150836020820283011115612cb357612cb2612981565b5b9250929050565b60048110612cc6575f5ffd5b50565b5f81359050612cd781612cba565b92915050565b5f5f5f60408486031215612cf457612cf361293e565b5b5f84013567ffffffffffffffff811115612d1157612d10612942565b5b612d1d86828701612c65565b93509350506020612d3086828701612cc9565b9150509250925092565b5f60208284031215612d4f57612d4e61293e565b5b5f612d5c84828501612965565b91505092915050565b612d6e81612946565b82525050565b612d7d8161290d565b82525050565b5f81519050919050565b5f82825260208201905092915050565b8281835e5f83830152505050565b5f601f19601f8301169050919050565b5f612dc582612d83565b612dcf8185612d8d565b9350612ddf818560208601612d9d565b612de881612dab565b840191505092915050565b612dfc81612ace565b82525050565b7f4e487b71000000000000000000000000000000000000000000000000000000005f52602160045260245ffd5b60048110612e4057612e3f612e02565b5b50565b5f819050612e5082612e2f565b919050565b5f612e5f82612e43565b9050919050565b612e6f81612e55565b82525050565b5f61010083015f830151612e8b5f860182612d65565b506020830151612e9e6020860182612d74565b506040830151612eb16040860182612d74565b5060608301518482036060860152612ec98282612dbb565b9150506080830151612ede6080860182612d65565b5060a0830151612ef160a0860182612d65565b5060c0830151612f0460c0860182612df3565b5060e0830151612f1760e0860182612e66565b508091505092915050565b5f6020820190508181035f830152612f3a8184612e75565b905092915050565b612f4b81612ace565b82525050565b5f602082019050612f645f830184612f42565b92915050565b5f5f60408385031215612f8057612f7f61293e565b5b5f612f8d85828601612af5565b9250506020612f9e85828601612965565b9150509250929050565b5f5f60208385031215612fbe57612fbd61293e565b5b5f83013567ffffffffffffffff811115612fdb57612fda612942565b5b612fe785828601612c65565b92509250509250929050565b5f81519050919050565b5f82825260208201905092915050565b5f819050602082019050919050565b5f61010083015f8301516130325f860182612d65565b5060208301516130456020860182612d74565b5060408301516130586040860182612d74565b50606083015184820360608601526130708282612dbb565b91505060808301516130856080860182612d65565b5060a083015161309860a0860182612d65565b5060c08301516130ab60c0860182612df3565b5060e08301516130be60e0860182612e66565b508091505092915050565b5f6130d4838361301c565b905092915050565b5f602082019050919050565b5f6130f282612ff3565b6130fc8185612ffd565b93508360208202850161310e8561300d565b805f5b85811015613149578484038952815161312a85826130c9565b9450613135836130dc565b925060208a01995050600181019050613111565b50829750879550505050505092915050565b5f6020820190508181035f83015261317381846130e8565b905092915050565b6131848161290d565b811461318e575f5ffd5b50565b5f8135905061319f8161317b565b92915050565b5f5f5f5f606085870312156131bd576131bc61293e565b5b5f6131ca87828801613191565b94505060206131db87828801613191565b935050604085013567ffffffffffffffff8111156131fc576131fb612942565b5b61320887828801612985565b925092505092959194509250565b5f82825260208201905092915050565b5f61323082612d83565b61323a8185613216565b935061324a818560208601612d9d565b61325381612dab565b840191505092915050565b61326781612e55565b82525050565b5f610100820190506132815f83018b612a87565b61328e602083018a612916565b61329b6040830189612916565b81810360608301526132ad8188613226565b90506132bc6080830187612a87565b6132c960a0830186612a87565b6132d660c0830185612f42565b6132e360e083018461325e565b9998505050505050505050565b5f6020820190508181035f8301526133088184613226565b905092915050565b5f5f604083850312156133265761332561293e565b5b5f61333385828601612965565b925050602061334485828601612cc9565b9150509250929050565b5f819050919050565b5f61337161336c61336784612aaf565b61334e565b612aaf565b9050919050565b5f61338282613357565b9050919050565b5f61339382613378565b9050919050565b6133a381613389565b82525050565b5f6020820190506133bc5f83018461339a565b92915050565b7f4e6f7420617574686f72697a6564206d756e69636970616c20617574686f72695f8201527f7479000000000000000000000000000000000000000000000000000000000000602082015250565b5f61341c602283613216565b9150613427826133c2565b604082019050919050565b5f6020820190508181035f83015261344981613410565b9050919050565b7f496e76616c6964207265706f72742049440000000000000000000000000000005f82015250565b5f613484601183613216565b915061348f82613450565b602082019050919050565b5f6020820190508181035f8301526134b181613478565b9050919050565b7f52656a656374696f6e20726561736f6e207265717569726564000000000000005f82015250565b5f6134ec601983613216565b91506134f7826134b8565b602082019050919050565b5f6020820190508181035f830152613519816134e0565b9050919050565b5f6060820190506135335f830186612a87565b6135406020830185612a87565b61354d6040830184612a87565b949350505050565b7f4e487b71000000000000000000000000000000000000000000000000000000005f52603260045260245ffd5b7f4e487b71000000000000000000000000000000000000000000000000000000005f52601160045260245ffd5b5f6135b982612946565b91507fffffffffffffffffffffffffffffffffffffffffffffffffffffffffffffffff82036135eb576135ea613582565b5b600182019050919050565b5f82825260208201905092915050565b5f819050919050565b5f61361a8383612df3565b60208301905092915050565b5f6136346020840184612af5565b905092915050565b5f602082019050919050565b5f61365383856135f6565b935061365e82613606565b805f5b85811015613696576136738284613626565b61367d888261360f565b97506136888361363c565b925050600181019050613661565b5085925050509392505050565b5f6020820190508181035f8301526136bc818486613648565b90509392505050565b7f436974697a656e20616c726561647920726567697374657265640000000000005f82015250565b5f6136f9601a83613216565b9150613704826136c5565b602082019050919050565b5f6020820190508181035f830152613726816136ed565b9050919050565b7f4e487b71000000000000000000000000000000000000000000000000000000005f52602260045260245ffd5b5f600282049050600182168061377157607f821691505b6020821081036137845761378361372d565b5b50919050565b7f436974697a656e206e6f742072656769737465726564000000000000000000005f82015250565b5f6137be601683613216565b91506137c98261378a565b602082019050919050565b5f6020820190508181035f8301526137eb816137b2565b9050919050565b5f6137fc82612946565b91505f820361380e5761380d613582565b5b600182039050919050565b7f4e487b71000000000000000000000000000000000000000000000000000000005f52604160045260245ffd5b7f4e6f74207265676973746572656420636974697a656e000000000000000000005f82015250565b5f61387a601683613216565b915061388582613846565b602082019050919050565b5f6020820190508181035f8301526138a78161386e565b9050919050565b7f4c61746974756465206f757473696465206369747920626f756e6473000000005f82015250565b5f6138e2601c83613216565b91506138ed826138ae565b602082019050919050565b5f6020820190508181035f83015261390f816138d6565b9050919050565b7f4c6f6e676974756465206f757473696465206369747920626f756e64730000005f82015250565b5f61394a601d83613216565b915061395582613916565b602082019050919050565b5f6020820190508181035f8301526139778161393e565b9050919050565b7f49504653206861736820726571756972656400000000000000000000000000005f82015250565b5f6139b2601283613216565b91506139bd8261397e565b602082019050919050565b5f6020820190508181035f8301526139df816139a6565b9050919050565b7f43616e6e6f74207265706f7274206c6f636174696f6e20696e2070726f6772655f8201527f7373000000000000000000000000000000000000000000000000000000000000602082015250565b5f613a40602283613216565b9150613a4b826139e6565b604082019050919050565b5f6020820190508181035f830152613a6d81613a34565b9050919050565b7f596f7520616c7265616479207265706f72746564207468697320706f74686f6c5f8201527f6500000000000000000000000000000000000000000000000000000000000000602082015250565b5f613ace602183613216565b9150613ad982613a74565b604082019050919050565b5f6020820190508181035f830152613afb81613ac2565b9050919050565b828183375f83830152505050565b5f613b1b8385613216565b9350613b28838584613b02565b613b3183612dab565b840190509392505050565b5f608082019050613b4f5f830188612a87565b613b5c6020830187612916565b613b696040830186612916565b8181036060830152613b7c818486613b10565b90509695505050505050565b5f819050815f5260205f209050919050565b5f6020601f8301049050919050565b5f82821b905092915050565b5f60088302613be47fffffffffffffffffffffffffffffffffffffffffffffffffffffffffffffffff82613ba9565b613bee8683613ba9565b95508019841693508086168417925050509392505050565b5f613c20613c1b613c1684612946565b61334e565b612946565b9050919050565b5f819050919050565b613c3983613c06565b613c4d613c4582613c27565b848454613bb5565b825550505050565b5f5f905090565b613c64613c55565b613c6f818484613c30565b505050565b5b81811015613c9257613c875f82613c5c565b600181019050613c75565b5050565b601f821115613cd757613ca881613b88565b613cb184613b9a565b81016020851015613cc0578190505b613cd4613ccc85613b9a565b830182613c74565b50505b505050565b5f82821c905092915050565b5f613cf75f1984600802613cdc565b1980831691505092915050565b5f613d0f8383613ce8565b9150826002028217905092915050565b613d2882612d83565b67ffffffffffffffff811115613d4157613d40613819565b5b613d4b825461375a565b613d56828285613c96565b5f60209050601f831160018114613d87575f8415613d75578287015190505b613d7f8582613d04565b865550613de6565b601f198416613d9586613b88565b5f5b82811015613dbc57848901518255600182019150602085019450602081019050613d97565b86831015613dd95784890151613dd5601f891682613ce8565b8355505b6001600288020188555050505b505050505050565b5f606082019050613e015f830187612916565b613e0e6020830186612916565b8181036040830152613e21818486613b10565b905095945050505050565b5f613e3682612946565b9150613e4183612946565b9250828203905081811115613e5957613e58613582565b5b92915050565b7f53746174757320756e6368616e676564000000000000000000000000000000005f82015250565b5f613e93601083613216565b9150613e9e82613e5f565b602082019050919050565b5f6020820190508181035f830152613ec081613e87565b9050919050565b7f43616e6e6f74207570646174652072656a656374656420706f74686f6c6500005f82015250565b5f613efb601e83613216565b9150613f0682613ec7565b602082019050919050565b5f6020820190508181035f830152613f2881613eef565b9050919050565b7f43616e6e6f742075706461746520636f6d706c6574656420706f74686f6c65005f82015250565b5f613f63601f83613216565b9150613f6e82613f2f565b602082019050919050565b5f6020820190508181035f830152613f9081613f57565b9050919050565b5f604082019050613faa5f830185612f42565b613fb76020830184612a87565b9392505050565b5f604082019050613fd15f83018561325e565b613fde602083018461325e565b9392505050565b7f4e487b71000000000000000000000000000000000000000000000000000000005f52601260045260245ffd5b5f61401c8261290d565b91506140278361290d565b92508261403757614036613fe5565b5b60015f0383147f80000000000000000000000000000000000000000000000000000000000000008314161561406f5761406e613582565b5b828205905092915050565b5f819050919050565b61409461408f8261290d565b61407a565b82525050565b5f6140a58285614083565b6020820191506140b58284614083565b6020820191508190509392505050565b5f5ffd5b5f5ffd5b5f5f858511156140e0576140df6140c5565b5b838611156140f1576140f06140c9565b5b6001850283019150848603905094509492505050565b5f82905092915050565b5f7fffffffffffffffffffffffffffffffffffffffff00000000000000000000000082169050919050565b5f6141478383614107565b826141528135614111565b925060148210156141925761418d7fffffffffffffffffffffffffffffffffffffffff00000000000000000000000083601403600802613ba9565b831692505b50509291505056fea2646970667358221220148329050cbda94ba8fdad06cdfd64daec8b83b6b8671c23b2cf6a226950bc7b64736f6c634300081c0033",
  "linkReferences": {},
  "deployedLinkReferences": {},
  "immutableReferences": {
    "157": [
      {
        "length": 32,
        "start": 4333
      }
    ],
    "436": [
      {
        "length": 32,
        "start": 8489
      },
      {
        "length": 32,
        "start": 9076
      },
      {
        "length": 32,
        "start": 9321
      }
    ],
    "443": [
      {
        "length": 32,
        "start": 1892
      },
      {
        "length": 32,
        "start": 5531
      }
    ],
    "445": [
      {
        "length": 32,
        "start": 2407
      },
      {
        "length": 32,
        "start": 5574
      }
    ],
    "447": [
      {
        "length": 32,
        "start": 5674
      },
      {
        "length": 32,
        "start": 8059
      }
    ],
    "449": [
      {
        "length": 32,
        "start": 5342
      },
      {
        "length": 32,
        "start": 5717
      }
    ],
    "451": [
      {
        "length": 32,
        "start": 4242
      },
      {
        "length": 32,
        "start": 10123
      },
      {
        "length": 32,
        "start": 10170
      }
    ]
  },
  "inputSourceName": "project/contracts/PotholesRegistry.sol",
  "buildInfoId": "solc-0_8_28-d715ef5da153b318e0241d94fa49660a689251a3"
}